{"abi":[{"type":"receive","stateMutability":"payable"},{"type":"function","name":"coverDebt","inputs":[],"outputs":[],"stateMutability":"nonpayable"},{"type":"function","name":"depositForOperations","inputs":[],"outputs":[],"stateMutability":"payable"},{"type":"function","name":"emergencyWithdraw","inputs":[],"outputs":[],"stateMutability":"nonpayable"},{"type":"function","name":"getDebt","inputs":[],"outputs":[{"name":"","type":"uint256","internalType":"uint256"}],"stateMutability":"view"},{"type":"function","name":"getExpiringSubscriptions","inputs":[{"name":"","type":"uint64","internalType":"uint64"},{"name":"","type":"uint256","internalType":"uint256"}],"outputs":[{"name":"users","type":"address[]","internalType":"address[]"},{"name":"merchantIds","type":"uint256[]","internalType":"uint256[]"}],"stateMutability":"pure"},{"type":"function","name":"getTrackedExpiration","inputs":[{"name":"user","type":"address","internalType":"address"},{"name":"merchantId","type":"uint256","internalType":"uint256"}],"outputs":[{"name":"","type":"uint64","internalType":"uint64"}],"stateMutability":"view"},{"type":"function","name":"initialize","inputs":[{"name":"subscriptionManager","type":"address","internalType":"address"},{"name":"subscriptionNFT","type":"address","internalType":"address"},{"name":"destinationChainId","type":"uint256","internalType":"uint256"}],"outputs":[],"stateMutability":"nonpayable"},{"type":"function","name":"pause","inputs":[],"outputs":[],"stateMutability":"nonpayable"},{"type":"function","name":"pay","inputs":[{"name":"amount","type":"uint256","internalType":"uint256"}],"outputs":[],"stateMutability":"nonpayable"},{"type":"function","name":"react","inputs":[{"name":"log","type":"tuple","internalType":"struct IReactive.LogRecord","components":[{"name":"chain_id","type":"uint256","internalType":"uint256"},{"name":"_contract","type":"address","internalType":"address"},{"name":"topic_0","type":"uint256","internalType":"uint256"},{"name":"topic_1","type":"uint256","internalType":"uint256"},{"name":"topic_2","type":"uint256","internalType":"uint256"},{"name":"topic_3","type":"uint256","internalType":"uint256"},{"name":"data","type":"bytes","internalType":"bytes"},{"name":"block_number","type":"uint256","internalType":"uint256"},{"name":"op_code","type":"uint256","internalType":"uint256"},{"name":"block_hash","type":"uint256","internalType":"uint256"},{"name":"tx_hash","type":"uint256","internalType":"uint256"},{"name":"log_index","type":"uint256","internalType":"uint256"}]}],"outputs":[],"stateMutability":"nonpayable"},{"type":"function","name":"resume","inputs":[],"outputs":[],"stateMutability":"nonpayable"},{"type":"function","name":"subscribeToCron","inputs":[{"name":"interval","type":"uint256","internalType":"uint256"}],"outputs":[],"stateMutability":"nonpayable"},{"type":"function","name":"subscribeToPaymentEvents","inputs":[{"name":"chainId","type":"uint256","internalType":"uint256"},{"name":"contractAddress","type":"address","internalType":"address"}],"outputs":[],"stateMutability":"nonpayable"},{"type":"function","name":"updateCallbackGasLimit","inputs":[{"name":"newLimit","type":"uint64","internalType":"uint64"}],"outputs":[],"stateMutability":"nonpayable"},{"type":"function","name":"updateSubscriptionState","inputs":[{"name":"user","type":"address","internalType":"address"},{"name":"merchantId","type":"uint256","internalType":"uint256"},{"name":"expiresAt","type":"uint64","internalType":"uint64"}],"outputs":[],"stateMutability":"nonpayable"},{"type":"event","name":"Callback","inputs":[{"name":"chain_id","type":"uint256","indexed":true,"internalType":"uint256"},{"name":"_contract","type":"address","indexed":true,"internalType":"address"},{"name":"gas_limit","type":"uint64","indexed":true,"internalType":"uint64"},{"name":"payload","type":"bytes","indexed":false,"internalType":"bytes"}],"anonymous":false}],"bytecode":{"object":"0x608060405234801561000f575f5ffd5b5062ffffff600260016101000a81548173ffffffffffffffffffffffffffffffffffffffff021916908373ffffffffffffffffffffffffffffffffffffffff16021790555f5f6101000a81548173ffffffffffffffffffffffffffffffffffffffff021916908373ffffffffffffffffffffffffffffffffffffffff1602179055506100a362ffffff6100b660201b60201c565b6100b161010d60201b60201c565b610133565b6001805f8373ffffffffffffffffffffffffffffffffffffffff1673ffffffffffffffffffffffffffffffffffffffff1681526020019081526020015f205f6101000a81548160ff02191690831515021790555050565b5f62ffffff3b90505f811460025f6101000a81548160ff02191690831515021790555050565b612350806101405f395ff3fe6080604052600436106100eb575f3560e01c80636c6ac764116100895780637f31d20d116100585780637f31d20d146102975780638456cb59146102bf578063c290d691146102d5578063db2e21bc146102fd576100f2565b80636c6ac764146101fe5780637120ffbc1461023b5780637a90b990146102455780637bb694e41461025b576100f2565b80631794bb3c116100c55780631794bb3c1461015e5780635c9d8c21146101865780635f15288a146101ae57806368bd4fbe146101d6576100f2565b8063046f7da2146100f65780630d152c2c1461010c57806314a6bf0f14610134576100f2565b366100f257005b5f5ffd5b348015610101575f5ffd5b5061010a610313565b005b348015610117575f5ffd5b50610132600480360381019061012d919061149d565b61037d565b005b34801561013f575f5ffd5b506101486104b6565b60405161015591906114fc565b60405180910390f35b348015610169575f5ffd5b50610184600480360381019061017f9190611599565b6105b0565b005b348015610191575f5ffd5b506101ac60048036038101906101a79190611626565b6107b6565b005b3480156101b9575f5ffd5b506101d460048036038101906101cf9190611676565b61082d565b005b3480156101e1575f5ffd5b506101fc60048036038101906101f791906116a1565b6108a9565b005b348015610209575f5ffd5b50610224600480360381019061021f91906116df565b6109f0565b60405161023292919061188b565b60405180910390f35b610243610a90565b005b348015610250575f5ffd5b50610259610a92565b005b348015610266575f5ffd5b50610281600480360381019061027c91906118c0565b610b5a565b60405161028e919061190d565b60405180910390f35b3480156102a2575f5ffd5b506102bd60048036038101906102b89190611926565b610bc3565b005b3480156102ca575f5ffd5b506102d3610ca7565b005b3480156102e0575f5ffd5b506102fb60048036038101906102f69190611926565b610d12565b005b348015610308575f5ffd5b50610311610da8565b005b60025f9054906101000a900460ff1615610362576040517f08c379a0000000000000000000000000000000000000000000000000000000008152600401610359906119ab565b60405180910390fd5b5f60075f6101000a81548160ff021916908315150217905550565b60025f9054906101000a900460ff166103cb576040517f08c379a00000000000000000000000000000000000000000000000000000000081526004016103c290611a13565b60405180910390fd5b60075f9054906101000a900460ff161561041a576040517f08c379a000000000000000000000000000000000000000000000000000000000815260040161041190611a7b565b60405180910390fd5b7f963828b78055ed788a775c5912101b4833a80b32fff96e3fecd0ab3a63d8233b5f1c8160400135036104555761045081610ee9565b6104b3565b5f815f01351480156104a457505f73ffffffffffffffffffffffffffffffffffffffff1681602001602081019061048c9190611a99565b73ffffffffffffffffffffffffffffffffffffffff16145b156104b2576104b161115e565b5b5b50565b5f5f73ffffffffffffffffffffffffffffffffffffffff165f5f9054906101000a900473ffffffffffffffffffffffffffffffffffffffff1673ffffffffffffffffffffffffffffffffffffffff16146105a9575f5f9054906101000a900473ffffffffffffffffffffffffffffffffffffffff1673ffffffffffffffffffffffffffffffffffffffff16639b6c56ec306040518263ffffffff1660e01b81526004016105639190611ad3565b602060405180830381865afa15801561057e573d5f5f3e3d5ffd5b505050506040513d601f19601f820116820180604052508101906105a29190611b00565b90506105ad565b5f90505b90565b60025f9054906101000a900460ff16156105ff576040517f08c379a00000000000000000000000000000000000000000000000000000000081526004016105f6906119ab565b60405180910390fd5b5f73ffffffffffffffffffffffffffffffffffffffff1660035f015f9054906101000a900473ffffffffffffffffffffffffffffffffffffffff1673ffffffffffffffffffffffffffffffffffffffff1614610690576040517f08c379a000000000000000000000000000000000000000000000000000000000815260040161068790611b75565b60405180910390fd5b60405180608001604052808473ffffffffffffffffffffffffffffffffffffffff1681526020018373ffffffffffffffffffffffffffffffffffffffff168152602001828152602001620f424067ffffffffffffffff1681525060035f820151815f015f6101000a81548173ffffffffffffffffffffffffffffffffffffffff021916908373ffffffffffffffffffffffffffffffffffffffff1602179055506020820151816001015f6101000a81548173ffffffffffffffffffffffffffffffffffffffff021916908373ffffffffffffffffffffffffffffffffffffffff160217905550604082015181600201556060820151816003015f6101000a81548167ffffffffffffffff021916908367ffffffffffffffff160217905550905050505050565b8060085f8573ffffffffffffffffffffffffffffffffffffffff1673ffffffffffffffffffffffffffffffffffffffff1681526020019081526020015f205f8481526020019081526020015f205f6101000a81548167ffffffffffffffff021916908367ffffffffffffffff160217905550505050565b60025f9054906101000a900460ff161561087c576040517f08c379a0000000000000000000000000000000000000000000000000000000008152600401610873906119ab565b60405180910390fd5b80600380015f6101000a81548167ffffffffffffffff021916908367ffffffffffffffff16021790555050565b60025f9054906101000a900460ff16156108f8576040517f08c379a00000000000000000000000000000000000000000000000000000000081526004016108ef906119ab565b60405180910390fd5b600260019054906101000a900473ffffffffffffffffffffffffffffffffffffffff1673ffffffffffffffffffffffffffffffffffffffff16635a6aced083837f963828b78055ed788a775c5912101b4833a80b32fff96e3fecd0ab3a63d8233b5f1c7fa65f96fc951c35ead38878e0f0b7a3c744a6f5ccc1476b313353ce31712313ad807fa65f96fc951c35ead38878e0f0b7a3c744a6f5ccc1476b313353ce31712313ad6040518763ffffffff1660e01b81526004016109bf96959493929190611b93565b5f604051808303815f87803b1580156109d6575f5ffd5b505af11580156109e8573d5f5f3e3d5ffd5b505050505050565b6060805f67ffffffffffffffff811115610a0d57610a0c611bf2565b5b604051908082528060200260200182016040528015610a3b5781602001602082028036833780820191505090505b5091505f67ffffffffffffffff811115610a5857610a57611bf2565b5b604051908082528060200260200182016040528015610a865781602001602082028036833780820191505090505b5090509250929050565b565b5f5f5f9054906101000a900473ffffffffffffffffffffffffffffffffffffffff1673ffffffffffffffffffffffffffffffffffffffff16639b6c56ec306040518263ffffffff1660e01b8152600401610aec9190611ad3565b602060405180830381865afa158015610b07573d5f5f3e3d5ffd5b505050506040513d601f19601f82011682018060405250810190610b2b9190611b00565b9050610b575f5f9054906101000a900473ffffffffffffffffffffffffffffffffffffffff16826112d4565b50565b5f60085f8473ffffffffffffffffffffffffffffffffffffffff1673ffffffffffffffffffffffffffffffffffffffff1681526020019081526020015f205f8381526020019081526020015f205f9054906101000a900467ffffffffffffffff16905092915050565b60025f9054906101000a900460ff1615610c12576040517f08c379a0000000000000000000000000000000000000000000000000000000008152600401610c09906119ab565b60405180910390fd5b600260019054906101000a900473ffffffffffffffffffffffffffffffffffffffff1673ffffffffffffffffffffffffffffffffffffffff16635a6aced05f5f845f5f5f6040518763ffffffff1660e01b8152600401610c7796959493929190611c61565b5f604051808303815f87803b158015610c8e575f5ffd5b505af1158015610ca0573d5f5f3e3d5ffd5b5050505050565b60025f9054906101000a900460ff1615610cf6576040517f08c379a0000000000000000000000000000000000000000000000000000000008152600401610ced906119ab565b60405180910390fd5b600160075f6101000a81548160ff021916908315150217905550565b60015f3373ffffffffffffffffffffffffffffffffffffffff1673ffffffffffffffffffffffffffffffffffffffff1681526020019081526020015f205f9054906101000a900460ff16610d9b576040517f08c379a0000000000000000000000000000000000000000000000000000000008152600401610d9290611d0a565b60405180910390fd5b610da533826112d4565b50565b60025f9054906101000a900460ff1615610df7576040517f08c379a0000000000000000000000000000000000000000000000000000000008152600401610dee906119ab565b60405180910390fd5b5f4790505f8111610e3d576040517f08c379a0000000000000000000000000000000000000000000000000000000008152600401610e3490611d72565b60405180910390fd5b5f3373ffffffffffffffffffffffffffffffffffffffff1682604051610e6290611dbd565b5f6040518083038185875af1925050503d805f8114610e9c576040519150601f19603f3d011682016040523d82523d5f602084013e610ea1565b606091505b5050905080610ee5576040517f08c379a0000000000000000000000000000000000000000000000000000000008152600401610edc90611e1b565b60405180910390fd5b5050565b5f5f5f838060c00190610efc9190611e45565b810190610f099190611ee2565b9550505050925092505f60085f8573ffffffffffffffffffffffffffffffffffffffff1673ffffffffffffffffffffffffffffffffffffffff1681526020019081526020015f205f8481526020019081526020015f205f9054906101000a900467ffffffffffffffff1690505f4267ffffffffffffffff168267ffffffffffffffff161115610fa5578282610f9e9190611f98565b9050610fb4565b8242610fb19190611f98565b90505b8060085f8773ffffffffffffffffffffffffffffffffffffffff1673ffffffffffffffffffffffffffffffffffffffff1681526020019081526020015f205f8681526020019081526020015f205f6101000a81548167ffffffffffffffff021916908367ffffffffffffffff1602179055505f85858360405160240161103c93929190611fd3565b6040516020818303038152906040527f98f327d3000000000000000000000000000000000000000000000000000000007bffffffffffffffffffffffffffffffffffffffffffffffffffffffff19166020820180517bffffffffffffffffffffffffffffffffffffffffffffffffffffffff83818316178352505050509050600380015f9054906101000a900467ffffffffffffffff1667ffffffffffffffff1660036001015f9054906101000a900473ffffffffffffffffffffffffffffffffffffffff1673ffffffffffffffffffffffffffffffffffffffff166003600201547f8dd725fa9d6cd150017ab9e60318d40616439424e2fade9c1c58854950917dfc8460405161114d9190612078565b60405180910390a450505050505050565b5f4290505f6032905060095f611174919061141b565b600a5f6111819190611439565b5f60098054905011801561119a57508060098054905011155b156112d0575f6009600a6040516024016111b5929190612237565b6040516020818303038152906040527fb66e25a2000000000000000000000000000000000000000000000000000000007bffffffffffffffffffffffffffffffffffffffffffffffffffffffff19166020820180517bffffffffffffffffffffffffffffffffffffffffffffffffffffffff83818316178352505050509050600380015f9054906101000a900467ffffffffffffffff1667ffffffffffffffff1660036001015f9054906101000a900473ffffffffffffffffffffffffffffffffffffffff1673ffffffffffffffffffffffffffffffffffffffff166003600201547f8dd725fa9d6cd150017ab9e60318d40616439424e2fade9c1c58854950917dfc846040516112c69190612078565b60405180910390a4505b5050565b80471015611317576040517f08c379a000000000000000000000000000000000000000000000000000000000815260040161130e906122b6565b60405180910390fd5b5f811115611417575f8273ffffffffffffffffffffffffffffffffffffffff16825f67ffffffffffffffff81111561135257611351611bf2565b5b6040519080825280601f01601f1916602001820160405280156113845781602001600182028036833780820191505090505b506040516113929190612304565b5f6040518083038185875af1925050503d805f81146113cc576040519150601f19603f3d011682016040523d82523d5f602084013e6113d1565b606091505b5050905080611415576040517f08c379a000000000000000000000000000000000000000000000000000000000815260040161140c90611e1b565b60405180910390fd5b505b5050565b5080545f8255905f5260205f20908101906114369190611457565b50565b5080545f8255905f5260205f20908101906114549190611457565b50565b5b8082111561146e575f815f905550600101611458565b5090565b5f5ffd5b5f5ffd5b5f5ffd5b5f61018082840312156114945761149361147a565b5b81905092915050565b5f602082840312156114b2576114b1611472565b5b5f82013567ffffffffffffffff8111156114cf576114ce611476565b5b6114db8482850161147e565b91505092915050565b5f819050919050565b6114f6816114e4565b82525050565b5f60208201905061150f5f8301846114ed565b92915050565b5f73ffffffffffffffffffffffffffffffffffffffff82169050919050565b5f61153e82611515565b9050919050565b61154e81611534565b8114611558575f5ffd5b50565b5f8135905061156981611545565b92915050565b611578816114e4565b8114611582575f5ffd5b50565b5f813590506115938161156f565b92915050565b5f5f5f606084860312156115b0576115af611472565b5b5f6115bd8682870161155b565b93505060206115ce8682870161155b565b92505060406115df86828701611585565b9150509250925092565b5f67ffffffffffffffff82169050919050565b611605816115e9565b811461160f575f5ffd5b50565b5f81359050611620816115fc565b92915050565b5f5f5f6060848603121561163d5761163c611472565b5b5f61164a8682870161155b565b935050602061165b86828701611585565b925050604061166c86828701611612565b9150509250925092565b5f6020828403121561168b5761168a611472565b5b5f61169884828501611612565b91505092915050565b5f5f604083850312156116b7576116b6611472565b5b5f6116c485828601611585565b92505060206116d58582860161155b565b9150509250929050565b5f5f604083850312156116f5576116f4611472565b5b5f61170285828601611612565b925050602061171385828601611585565b9150509250929050565b5f81519050919050565b5f82825260208201905092915050565b5f819050602082019050919050565b61174f81611534565b82525050565b5f6117608383611746565b60208301905092915050565b5f602082019050919050565b5f6117828261171d565b61178c8185611727565b935061179783611737565b805f5b838110156117c75781516117ae8882611755565b97506117b98361176c565b92505060018101905061179a565b5085935050505092915050565b5f81519050919050565b5f82825260208201905092915050565b5f819050602082019050919050565b611806816114e4565b82525050565b5f61181783836117fd565b60208301905092915050565b5f602082019050919050565b5f611839826117d4565b61184381856117de565b935061184e836117ee565b805f5b8381101561187e578151611865888261180c565b975061187083611823565b925050600181019050611851565b5085935050505092915050565b5f6040820190508181035f8301526118a38185611778565b905081810360208301526118b7818461182f565b90509392505050565b5f5f604083850312156118d6576118d5611472565b5b5f6118e38582860161155b565b92505060206118f485828601611585565b9150509250929050565b611907816115e9565b82525050565b5f6020820190506119205f8301846118fe565b92915050565b5f6020828403121561193b5761193a611472565b5b5f61194884828501611585565b91505092915050565b5f82825260208201905092915050565b7f5265616374697665204e6574776f726b206f6e6c7900000000000000000000005f82015250565b5f611995601583611951565b91506119a082611961565b602082019050919050565b5f6020820190508181035f8301526119c281611989565b9050919050565b7f564d206f6e6c79000000000000000000000000000000000000000000000000005f82015250565b5f6119fd600783611951565b9150611a08826119c9565b602082019050919050565b5f6020820190508181035f830152611a2a816119f1565b9050919050565b7f436f6e74726163742069732070617573656400000000000000000000000000005f82015250565b5f611a65601283611951565b9150611a7082611a31565b602082019050919050565b5f6020820190508181035f830152611a9281611a59565b9050919050565b5f60208284031215611aae57611aad611472565b5b5f611abb8482850161155b565b91505092915050565b611acd81611534565b82525050565b5f602082019050611ae65f830184611ac4565b92915050565b5f81519050611afa8161156f565b92915050565b5f60208284031215611b1557611b14611472565b5b5f611b2284828501611aec565b91505092915050565b7f416c726561647920696e697469616c697a6564000000000000000000000000005f82015250565b5f611b5f601383611951565b9150611b6a82611b2b565b602082019050919050565b5f6020820190508181035f830152611b8c81611b53565b9050919050565b5f60c082019050611ba65f8301896114ed565b611bb36020830188611ac4565b611bc060408301876114ed565b611bcd60608301866114ed565b611bda60808301856114ed565b611be760a08301846114ed565b979650505050505050565b7f4e487b71000000000000000000000000000000000000000000000000000000005f52604160045260245ffd5b5f819050919050565b5f819050919050565b5f611c4b611c46611c4184611c1f565b611c28565b6114e4565b9050919050565b611c5b81611c31565b82525050565b5f60c082019050611c745f830189611c52565b611c816020830188611ac4565b611c8e60408301876114ed565b611c9b6060830186611c52565b611ca86080830185611c52565b611cb560a0830184611c52565b979650505050505050565b7f417574686f72697a65642073656e646572206f6e6c79000000000000000000005f82015250565b5f611cf4601683611951565b9150611cff82611cc0565b602082019050919050565b5f6020820190508181035f830152611d2181611ce8565b9050919050565b7f4e6f2062616c616e6365000000000000000000000000000000000000000000005f82015250565b5f611d5c600a83611951565b9150611d6782611d28565b602082019050919050565b5f6020820190508181035f830152611d8981611d50565b9050919050565b5f81905092915050565b50565b5f611da85f83611d90565b9150611db382611d9a565b5f82019050919050565b5f611dc782611d9d565b9150819050919050565b7f5472616e73666572206661696c656400000000000000000000000000000000005f82015250565b5f611e05600f83611951565b9150611e1082611dd1565b602082019050919050565b5f6020820190508181035f830152611e3281611df9565b9050919050565b5f5ffd5b5f5ffd5b5f5ffd5b5f5f83356001602003843603038112611e6157611e60611e39565b5b80840192508235915067ffffffffffffffff821115611e8357611e82611e3d565b5b602083019250600182023603831315611e9f57611e9e611e41565b5b509250929050565b5f611eb182611515565b9050919050565b611ec181611ea7565b8114611ecb575f5ffd5b50565b5f81359050611edc81611eb8565b92915050565b5f5f5f5f5f5f60c08789031215611efc57611efb611472565b5b5f611f0989828a01611ece565b9650506020611f1a89828a01611585565b9550506040611f2b89828a01611ece565b9450506060611f3c89828a01611585565b9350506080611f4d89828a01611585565b92505060a0611f5e89828a01611612565b9150509295509295509295565b7f4e487b71000000000000000000000000000000000000000000000000000000005f52601160045260245ffd5b5f611fa2826115e9565b9150611fad836115e9565b9250828201905067ffffffffffffffff811115611fcd57611fcc611f6b565b5b92915050565b5f606082019050611fe65f830186611ac4565b611ff360208301856114ed565b61200060408301846118fe565b949350505050565b5f81519050919050565b5f82825260208201905092915050565b8281835e5f83830152505050565b5f601f19601f8301169050919050565b5f61204a82612008565b6120548185612012565b9350612064818560208601612022565b61206d81612030565b840191505092915050565b5f6020820190508181035f8301526120908184612040565b905092915050565b5f81549050919050565b5f819050815f5260205f209050919050565b5f815f1c9050919050565b5f73ffffffffffffffffffffffffffffffffffffffff82169050919050565b5f6120f06120eb836120b4565b6120bf565b9050919050565b5f61210282546120de565b9050919050565b5f600182019050919050565b5f61211f82612098565b6121298185611727565b9350612134836120a2565b805f5b8381101561216b57612148826120f7565b6121528882611755565b975061215d83612109565b925050600181019050612137565b5085935050505092915050565b5f81549050919050565b5f819050815f5260205f209050919050565b5f819050919050565b5f6121af6121aa836120b4565b612194565b9050919050565b5f6121c1825461219d565b9050919050565b5f600182019050919050565b5f6121de82612178565b6121e881856117de565b93506121f383612182565b805f5b8381101561222a57612207826121b6565b612211888261180c565b975061221c836121c8565b9250506001810190506121f6565b5085935050505092915050565b5f6040820190508181035f83015261224f8185612115565b9050818103602083015261226381846121d4565b90509392505050565b7f496e73756666696369656e742066756e647300000000000000000000000000005f82015250565b5f6122a0601283611951565b91506122ab8261226c565b602082019050919050565b5f6020820190508181035f8301526122cd81612294565b9050919050565b5f6122de82612008565b6122e88185611d90565b93506122f8818560208601612022565b80840191505092915050565b5f61230f82846122d4565b91508190509291505056fea26469706673582212205ee895caacc9665c18e882a3bdc78fccc67b9e5f1b26ccd9d05729e72d32ce3264736f6c634300081c0033","linkReferences":{}},"methodIdentifiers":{"coverDebt()":"7a90b990","depositForOperations()":"7120ffbc","emergencyWithdraw()":"db2e21bc","getDebt()":"14a6bf0f","getExpiringSubscriptions(uint64,uint256)":"6c6ac764","getTrackedExpiration(address,uint256)":"7bb694e4","initialize(address,address,uint256)":"1794bb3c","pause()":"8456cb59","pay(uint256)":"c290d691","react((uint256,address,uint256,uint256,uint256,uint256,bytes,uint256,uint256,uint256,uint256,uint256))":"0d152c2c","resume()":"046f7da2","subscribeToCron(uint256)":"7f31d20d","subscribeToPaymentEvents(uint256,address)":"68bd4fbe","updateCallbackGasLimit(uint64)":"5f15288a","updateSubscriptionState(address,uint256,uint64)":"5c9d8c21"},"id":54}