{"abi":[{"type":"constructor","inputs":[],"stateMutability":"nonpayable"},{"type":"function","name":"getMerchantBalance","inputs":[{"name":"merchantId","type":"uint256","internalType":"uint256"},{"name":"token","type":"address","internalType":"address"}],"outputs":[{"name":"","type":"uint256","internalType":"uint256"}],"stateMutability":"view"},{"type":"function","name":"getMerchantPlan","inputs":[{"name":"merchantId","type":"uint256","internalType":"uint256"}],"outputs":[{"name":"","type":"tuple","internalType":"struct ISubscriptionTypes.MerchantPlan","components":[{"name":"payoutAddress","type":"address","internalType":"address"},{"name":"subscriptionPeriod","type":"uint64","internalType":"uint64"},{"name":"gracePeriod","type":"uint64","internalType":"uint64"},{"name":"isActive","type":"bool","internalType":"bool"},{"name":"totalSubscribers","type":"uint256","internalType":"uint256"}]}],"stateMutability":"view"},{"type":"function","name":"getMerchantPrice","inputs":[{"name":"merchantId","type":"uint256","internalType":"uint256"},{"name":"token","type":"address","internalType":"address"}],"outputs":[{"name":"","type":"uint256","internalType":"uint256"}],"stateMutability":"view"},{"type":"function","name":"isMerchantTokenAccepted","inputs":[{"name":"merchantId","type":"uint256","internalType":"uint256"},{"name":"token","type":"address","internalType":"address"}],"outputs":[{"name":"","type":"bool","internalType":"bool"}],"stateMutability":"view"},{"type":"function","name":"owner","inputs":[],"outputs":[{"name":"","type":"address","internalType":"address"}],"stateMutability":"view"},{"type":"function","name":"platformFeeBps","inputs":[],"outputs":[{"name":"","type":"uint16","internalType":"uint16"}],"stateMutability":"view"},{"type":"function","name":"registerMerchant","inputs":[{"name":"payoutAddress","type":"address","internalType":"address"},{"name":"subscriptionPeriod","type":"uint64","internalType":"uint64"},{"name":"gracePeriod","type":"uint64","internalType":"uint64"}],"outputs":[{"name":"merchantId","type":"uint256","internalType":"uint256"}],"stateMutability":"nonpayable"},{"type":"function","name":"renounceOwnership","inputs":[],"outputs":[],"stateMutability":"nonpayable"},{"type":"function","name":"setMerchantPrice","inputs":[{"name":"merchantId","type":"uint256","internalType":"uint256"},{"name":"paymentToken","type":"address","internalType":"address"},{"name":"price","type":"uint256","internalType":"uint256"}],"outputs":[],"stateMutability":"nonpayable"},{"type":"function","name":"setPlatformFee","inputs":[{"name":"_feeBps","type":"uint16","internalType":"uint16"}],"outputs":[],"stateMutability":"nonpayable"},{"type":"function","name":"setSubscriptionNFT","inputs":[{"name":"_nft","type":"address","internalType":"address"}],"outputs":[],"stateMutability":"nonpayable"},{"type":"function","name":"subscribe","inputs":[{"name":"merchantId","type":"uint256","internalType":"uint256"},{"name":"paymentToken","type":"address","internalType":"address"}],"outputs":[],"stateMutability":"payable"},{"type":"function","name":"subscriptionNFT","inputs":[],"outputs":[{"name":"","type":"address","internalType":"address"}],"stateMutability":"view"},{"type":"function","name":"transferOwnership","inputs":[{"name":"newOwner","type":"address","internalType":"address"}],"outputs":[],"stateMutability":"nonpayable"},{"type":"function","name":"updateMerchantPlan","inputs":[{"name":"merchantId","type":"uint256","internalType":"uint256"},{"name":"payoutAddress","type":"address","internalType":"address"},{"name":"subscriptionPeriod","type":"uint64","internalType":"uint64"},{"name":"isActive","type":"bool","internalType":"bool"}],"outputs":[],"stateMutability":"nonpayable"},{"type":"function","name":"withdrawMerchantBalance","inputs":[{"name":"merchantId","type":"uint256","internalType":"uint256"},{"name":"token","type":"address","internalType":"address"}],"outputs":[],"stateMutability":"nonpayable"},{"type":"function","name":"withdrawPlatformFees","inputs":[{"name":"token","type":"address","internalType":"address"},{"name":"to","type":"address","internalType":"address"}],"outputs":[],"stateMutability":"nonpayable"},{"type":"event","name":"MerchantRegistered","inputs":[{"name":"merchantId","type":"uint256","indexed":true,"internalType":"uint256"},{"name":"owner","type":"address","indexed":true,"internalType":"address"},{"name":"payoutAddress","type":"address","indexed":false,"internalType":"address"}],"anonymous":false},{"type":"event","name":"MerchantWithdrawal","inputs":[{"name":"merchantId","type":"uint256","indexed":true,"internalType":"uint256"},{"name":"token","type":"address","indexed":true,"internalType":"address"},{"name":"amount","type":"uint256","indexed":false,"internalType":"uint256"},{"name":"to","type":"address","indexed":false,"internalType":"address"}],"anonymous":false},{"type":"event","name":"OwnershipTransferred","inputs":[{"name":"previousOwner","type":"address","indexed":true,"internalType":"address"},{"name":"newOwner","type":"address","indexed":true,"internalType":"address"}],"anonymous":false},{"type":"event","name":"PaymentReceived","inputs":[{"name":"user","type":"address","indexed":true,"internalType":"address"},{"name":"merchantId","type":"uint256","indexed":true,"internalType":"uint256"},{"name":"paymentToken","type":"address","indexed":true,"internalType":"address"},{"name":"amount","type":"uint256","indexed":false,"internalType":"uint256"},{"name":"platformFee","type":"uint256","indexed":false,"internalType":"uint256"},{"name":"period","type":"uint64","indexed":false,"internalType":"uint64"}],"anonymous":false},{"type":"event","name":"PlatformFeeWithdrawal","inputs":[{"name":"token","type":"address","indexed":true,"internalType":"address"},{"name":"amount","type":"uint256","indexed":false,"internalType":"uint256"},{"name":"to","type":"address","indexed":false,"internalType":"address"}],"anonymous":false},{"type":"error","name":"OwnableInvalidOwner","inputs":[{"name":"owner","type":"address","internalType":"address"}]},{"type":"error","name":"OwnableUnauthorizedAccount","inputs":[{"name":"account","type":"address","internalType":"address"}]},{"type":"error","name":"ReentrancyGuardReentrantCall","inputs":[]},{"type":"error","name":"SafeERC20FailedOperation","inputs":[{"name":"token","type":"address","internalType":"address"}]}],"bytecode":{"object":"0x608060405260fa60025f6101000a81548161ffff021916908361ffff1602179055506001600355348015610031575f5ffd5b50335f73ffffffffffffffffffffffffffffffffffffffff168173ffffffffffffffffffffffffffffffffffffffff16036100a3575f6040517f1e4fbdf700000000000000000000000000000000000000000000000000000000815260040161009a91906101bf565b60405180910390fd5b6100b2816100bf60201b60201c565b50600180819055506101d8565b5f5f5f9054906101000a900473ffffffffffffffffffffffffffffffffffffffff169050815f5f6101000a81548173ffffffffffffffffffffffffffffffffffffffff021916908373ffffffffffffffffffffffffffffffffffffffff1602179055508173ffffffffffffffffffffffffffffffffffffffff168173ffffffffffffffffffffffffffffffffffffffff167f8be0079c531659141344cd1fd0a4f28419497f9722a3daafe3b4186f6b6457e060405160405180910390a35050565b5f73ffffffffffffffffffffffffffffffffffffffff82169050919050565b5f6101a982610180565b9050919050565b6101b98161019f565b82525050565b5f6020820190506101d25f8301846101b0565b92915050565b6128e3806101e55f395ff3fe6080604052600436106100fd575f3560e01c8063715018a611610094578063963fc8a211610063578063963fc8a2146102dd578063d8ab255014610319578063eea6e7f814610355578063f2fde38b14610391578063fa8d0804146103b9576100fd565b8063715018a61461024b57806385cf7244146102615780638bcc33391461028b5780638da5cb5b146102b3576100fd565b8063525a809d116100d0578063525a809d146101b757806359e6951d146101df5780635cbc742c146101fb5780635f815ade14610223576100fd565b8063135b31f81461010157806322dcd13e14610129578063259693261461015357806327062b451461017b575b5f5ffd5b34801561010c575f5ffd5b5061012760048036038101906101229190611c9b565b6103f5565b005b348015610134575f5ffd5b5061013d6106fe565b60405161014a9190611cf5565b60405180910390f35b34801561015e575f5ffd5b5061017960048036038101906101749190611d80565b610711565b005b348015610186575f5ffd5b506101a1600480360381019061019c9190611de4565b6108e5565b6040516101ae9190611eb1565b60405180910390f35b3480156101c2575f5ffd5b506101dd60048036038101906101d89190611eca565b6109eb565b005b6101f960048036038101906101f49190611c9b565b610ac4565b005b348015610206575f5ffd5b50610221600480360381019061021c9190611f1f565b610fb4565b005b34801561022e575f5ffd5b5061024960048036038101906102449190611f4a565b611028565b005b348015610256575f5ffd5b5061025f611138565b005b34801561026c575f5ffd5b5061027561114b565b6040516102829190611fa9565b60405180910390f35b348015610296575f5ffd5b506102b160048036038101906102ac9190611fc2565b61116f565b005b3480156102be575f5ffd5b506102c7611432565b6040516102d49190611fa9565b60405180910390f35b3480156102e8575f5ffd5b5061030360048036038101906102fe9190611c9b565b611459565b604051610310919061200f565b60405180910390f35b348015610324575f5ffd5b5061033f600480360381019061033a9190612028565b6114b2565b60405161034c919061200f565b60405180910390f35b348015610360575f5ffd5b5061037b60048036038101906103769190611c9b565b61170d565b604051610388919061200f565b60405180910390f35b34801561039c575f5ffd5b506103b760048036038101906103b29190611eca565b611763565b005b3480156103c4575f5ffd5b506103df60048036038101906103da9190611c9b565b6117e7565b6040516103ec9190612087565b60405180910390f35b816103ff8161183f565b73ffffffffffffffffffffffffffffffffffffffff163373ffffffffffffffffffffffffffffffffffffffff161461046c576040517f08c379a0000000000000000000000000000000000000000000000000000000008152600401610463906120fa565b60405180910390fd5b61047461187a565b5f60065f8581526020019081526020015f205f8473ffffffffffffffffffffffffffffffffffffffff1673ffffffffffffffffffffffffffffffffffffffff1681526020019081526020015f2090505f816002015490505f811161050d576040517f08c379a000000000000000000000000000000000000000000000000000000000815260040161050490612162565b60405180910390fd5b5f826002018190555080826001015f82825461052991906121ad565b9250508190555042826003015f6101000a81548167ffffffffffffffff021916908367ffffffffffffffff1602179055505f60045f8781526020019081526020015f205f015f9054906101000a900473ffffffffffffffffffffffffffffffffffffffff1690505f73ffffffffffffffffffffffffffffffffffffffff168573ffffffffffffffffffffffffffffffffffffffff1603610671575f8173ffffffffffffffffffffffffffffffffffffffff16836040516105e89061220d565b5f6040518083038185875af1925050503d805f8114610622576040519150601f19603f3d011682016040523d82523d5f602084013e610627565b606091505b505090508061066b576040517f08c379a00000000000000000000000000000000000000000000000000000000081526004016106629061226b565b60405180910390fd5b5061069d565b61069c81838773ffffffffffffffffffffffffffffffffffffffff166118c09092919063ffffffff16565b5b8473ffffffffffffffffffffffffffffffffffffffff16867ff4f201c1ca8337637f9ad819fbc6cee468d0b96e486375973b3d53b920fda3ae84846040516106e6929190612289565b60405180910390a35050506106f961193f565b505050565b60025f9054906101000a900461ffff1681565b8361071b8161183f565b73ffffffffffffffffffffffffffffffffffffffff163373ffffffffffffffffffffffffffffffffffffffff1614610788576040517f08c379a000000000000000000000000000000000000000000000000000000000815260040161077f906120fa565b60405180910390fd5b5f73ffffffffffffffffffffffffffffffffffffffff168473ffffffffffffffffffffffffffffffffffffffff16036107f6576040517f08c379a00000000000000000000000000000000000000000000000000000000081526004016107ed906122fa565b60405180910390fd5b5f8367ffffffffffffffff1611610842576040517f08c379a000000000000000000000000000000000000000000000000000000000815260040161083990612362565b60405180910390fd5b5f60045f8781526020019081526020015f20905084815f015f6101000a81548173ffffffffffffffffffffffffffffffffffffffff021916908373ffffffffffffffffffffffffffffffffffffffff16021790555083815f0160146101000a81548167ffffffffffffffff021916908367ffffffffffffffff160217905550828160010160086101000a81548160ff021916908315150217905550505050505050565b6108ed611bb4565b60045f8381526020019081526020015f206040518060a00160405290815f82015f9054906101000a900473ffffffffffffffffffffffffffffffffffffffff1673ffffffffffffffffffffffffffffffffffffffff1673ffffffffffffffffffffffffffffffffffffffff1681526020015f820160149054906101000a900467ffffffffffffffff1667ffffffffffffffff1667ffffffffffffffff168152602001600182015f9054906101000a900467ffffffffffffffff1667ffffffffffffffff1667ffffffffffffffff1681526020016001820160089054906101000a900460ff161515151581526020016002820154815250509050919050565b6109f3611948565b5f73ffffffffffffffffffffffffffffffffffffffff1660028054906101000a900473ffffffffffffffffffffffffffffffffffffffff1673ffffffffffffffffffffffffffffffffffffffff1614610a81576040517f08c379a0000000000000000000000000000000000000000000000000000000008152600401610a78906123ca565b60405180910390fd5b806002806101000a81548173ffffffffffffffffffffffffffffffffffffffff021916908373ffffffffffffffffffffffffffffffffffffffff16021790555050565b8160045f8281526020019081526020015f2060010160089054906101000a900460ff16610b26576040517f08c379a0000000000000000000000000000000000000000000000000000000008152600401610b1d90612432565b60405180910390fd5b610b2e61187a565b5f60055f8581526020019081526020015f205f8473ffffffffffffffffffffffffffffffffffffffff1673ffffffffffffffffffffffffffffffffffffffff1681526020019081526020015f205490505f8111610bc0576040517f08c379a0000000000000000000000000000000000000000000000000000000008152600401610bb79061249a565b60405180910390fd5b5f61271060025f9054906101000a900461ffff1661ffff1683610be391906124b8565b610bed9190612526565b90505f8183610bfc9190612556565b90505f73ffffffffffffffffffffffffffffffffffffffff168573ffffffffffffffffffffffffffffffffffffffff1603610c7857823414610c73576040517f08c379a0000000000000000000000000000000000000000000000000000000008152600401610c6a906125d3565b60405180910390fd5b610ce8565b5f3414610cba576040517f08c379a0000000000000000000000000000000000000000000000000000000008152600401610cb19061263b565b60405180910390fd5b610ce73330858873ffffffffffffffffffffffffffffffffffffffff166119cf909392919063ffffffff16565b5b5f60065f8881526020019081526020015f205f8773ffffffffffffffffffffffffffffffffffffffff1673ffffffffffffffffffffffffffffffffffffffff1681526020019081526020015f20905083815f015f828254610d4991906121ad565b9250508190555081816002015f828254610d6391906121ad565b925050819055508260075f610d76611432565b73ffffffffffffffffffffffffffffffffffffffff1673ffffffffffffffffffffffffffffffffffffffff1681526020019081526020015f205f8873ffffffffffffffffffffffffffffffffffffffff1673ffffffffffffffffffffffffffffffffffffffff1681526020019081526020015f205f828254610df891906121ad565b925050819055505f60045f8981526020019081526020015f209050806002015f815480929190610e2790612659565b91905055508673ffffffffffffffffffffffffffffffffffffffff16883373ffffffffffffffffffffffffffffffffffffffff167f963828b78055ed788a775c5912101b4833a80b32fff96e3fecd0ab3a63d8233b8888865f0160149054906101000a900467ffffffffffffffff16604051610ea5939291906126af565b60405180910390a45f73ffffffffffffffffffffffffffffffffffffffff1660028054906101000a900473ffffffffffffffffffffffffffffffffffffffff1673ffffffffffffffffffffffffffffffffffffffff1614610fa25760028054906101000a900473ffffffffffffffffffffffffffffffffffffffff1673ffffffffffffffffffffffffffffffffffffffff1663a24fb415338a845f0160149054906101000a900467ffffffffffffffff166040518463ffffffff1660e01b8152600401610f74939291906126e4565b5f604051808303815f87803b158015610f8b575f5ffd5b505af1158015610f9d573d5f5f3e3d5ffd5b505050505b5050505050610faf61193f565b505050565b610fbc611948565b6103e861ffff168161ffff161115611009576040517f08c379a000000000000000000000000000000000000000000000000000000000815260040161100090612763565b60405180910390fd5b8060025f6101000a81548161ffff021916908361ffff16021790555050565b826110328161183f565b73ffffffffffffffffffffffffffffffffffffffff163373ffffffffffffffffffffffffffffffffffffffff161461109f576040517f08c379a0000000000000000000000000000000000000000000000000000000008152600401611096906120fa565b60405180910390fd5b5f82116110e1576040517f08c379a00000000000000000000000000000000000000000000000000000000081526004016110d8906127cb565b60405180910390fd5b8160055f8681526020019081526020015f205f8573ffffffffffffffffffffffffffffffffffffffff1673ffffffffffffffffffffffffffffffffffffffff1681526020019081526020015f208190555050505050565b611140611948565b6111495f611a51565b565b60028054906101000a900473ffffffffffffffffffffffffffffffffffffffff1681565b611177611948565b61117f61187a565b5f60075f61118b611432565b73ffffffffffffffffffffffffffffffffffffffff1673ffffffffffffffffffffffffffffffffffffffff1681526020019081526020015f205f8473ffffffffffffffffffffffffffffffffffffffff1673ffffffffffffffffffffffffffffffffffffffff1681526020019081526020015f205490505f8111611244576040517f08c379a000000000000000000000000000000000000000000000000000000000815260040161123b90612833565b60405180910390fd5b5f60075f611250611432565b73ffffffffffffffffffffffffffffffffffffffff1673ffffffffffffffffffffffffffffffffffffffff1681526020019081526020015f205f8573ffffffffffffffffffffffffffffffffffffffff1673ffffffffffffffffffffffffffffffffffffffff1681526020019081526020015f20819055505f73ffffffffffffffffffffffffffffffffffffffff168373ffffffffffffffffffffffffffffffffffffffff16036113a9575f8273ffffffffffffffffffffffffffffffffffffffff16826040516113209061220d565b5f6040518083038185875af1925050503d805f811461135a576040519150601f19603f3d011682016040523d82523d5f602084013e61135f565b606091505b50509050806113a3576040517f08c379a000000000000000000000000000000000000000000000000000000000815260040161139a9061226b565b60405180910390fd5b506113d5565b6113d482828573ffffffffffffffffffffffffffffffffffffffff166118c09092919063ffffffff16565b5b8273ffffffffffffffffffffffffffffffffffffffff167f73e8125f7d393254514f4a30f371ba604cfb8f1246a5874b4230491e01a1a3d7828460405161141d929190612289565b60405180910390a25061142e61193f565b5050565b5f5f5f9054906101000a900473ffffffffffffffffffffffffffffffffffffffff16905090565b5f60065f8481526020019081526020015f205f8373ffffffffffffffffffffffffffffffffffffffff1673ffffffffffffffffffffffffffffffffffffffff1681526020019081526020015f2060020154905092915050565b5f5f73ffffffffffffffffffffffffffffffffffffffff168473ffffffffffffffffffffffffffffffffffffffff1603611521576040517f08c379a0000000000000000000000000000000000000000000000000000000008152600401611518906122fa565b60405180910390fd5b5f8367ffffffffffffffff161161156d576040517f08c379a000000000000000000000000000000000000000000000000000000000815260040161156490612362565b60405180910390fd5b60035f81548092919061157f90612659565b9190505590506040518060a001604052808573ffffffffffffffffffffffffffffffffffffffff1681526020018467ffffffffffffffff1681526020018367ffffffffffffffff1681526020016001151581526020015f81525060045f8381526020019081526020015f205f820151815f015f6101000a81548173ffffffffffffffffffffffffffffffffffffffff021916908373ffffffffffffffffffffffffffffffffffffffff1602179055506020820151815f0160146101000a81548167ffffffffffffffff021916908367ffffffffffffffff1602179055506040820151816001015f6101000a81548167ffffffffffffffff021916908367ffffffffffffffff16021790555060608201518160010160086101000a81548160ff021916908315150217905550608082015181600201559050503373ffffffffffffffffffffffffffffffffffffffff16817f817e18163b81cf9c490b9d9e647dae7d192c4907c18acf578ec4e3de57202023866040516116fe9190611fa9565b60405180910390a39392505050565b5f60055f8481526020019081526020015f205f8373ffffffffffffffffffffffffffffffffffffffff1673ffffffffffffffffffffffffffffffffffffffff1681526020019081526020015f2054905092915050565b61176b611948565b5f73ffffffffffffffffffffffffffffffffffffffff168173ffffffffffffffffffffffffffffffffffffffff16036117db575f6040517f1e4fbdf70000000000000000000000000000000000000000000000000000000081526004016117d29190611fa9565b60405180910390fd5b6117e481611a51565b50565b5f5f60055f8581526020019081526020015f205f8473ffffffffffffffffffffffffffffffffffffffff1673ffffffffffffffffffffffffffffffffffffffff1681526020019081526020015f205411905092915050565b5f60045f8381526020019081526020015f205f015f9054906101000a900473ffffffffffffffffffffffffffffffffffffffff169050919050565b6002600154036118b6576040517f3ee5aeb500000000000000000000000000000000000000000000000000000000815260040160405180910390fd5b6002600181905550565b61193a838473ffffffffffffffffffffffffffffffffffffffff1663a9059cbb85856040516024016118f3929190612851565b604051602081830303815290604052915060e01b6020820180517bffffffffffffffffffffffffffffffffffffffffffffffffffffffff8381831617835250505050611b12565b505050565b60018081905550565b611950611bad565b73ffffffffffffffffffffffffffffffffffffffff1661196e611432565b73ffffffffffffffffffffffffffffffffffffffff16146119cd57611991611bad565b6040517f118cdaa70000000000000000000000000000000000000000000000000000000081526004016119c49190611fa9565b60405180910390fd5b565b611a4b848573ffffffffffffffffffffffffffffffffffffffff166323b872dd868686604051602401611a0493929190612878565b604051602081830303815290604052915060e01b6020820180517bffffffffffffffffffffffffffffffffffffffffffffffffffffffff8381831617835250505050611b12565b50505050565b5f5f5f9054906101000a900473ffffffffffffffffffffffffffffffffffffffff169050815f5f6101000a81548173ffffffffffffffffffffffffffffffffffffffff021916908373ffffffffffffffffffffffffffffffffffffffff1602179055508173ffffffffffffffffffffffffffffffffffffffff168173ffffffffffffffffffffffffffffffffffffffff167f8be0079c531659141344cd1fd0a4f28419497f9722a3daafe3b4186f6b6457e060405160405180910390a35050565b5f5f60205f8451602086015f885af180611b31576040513d5f823e3d81fd5b3d92505f519150505f8214611b4a576001811415611b65565b5f8473ffffffffffffffffffffffffffffffffffffffff163b145b15611ba757836040517f5274afe7000000000000000000000000000000000000000000000000000000008152600401611b9e9190611fa9565b60405180910390fd5b50505050565b5f33905090565b6040518060a001604052805f73ffffffffffffffffffffffffffffffffffffffff1681526020015f67ffffffffffffffff1681526020015f67ffffffffffffffff1681526020015f151581526020015f81525090565b5f5ffd5b5f819050919050565b611c2081611c0e565b8114611c2a575f5ffd5b50565b5f81359050611c3b81611c17565b92915050565b5f73ffffffffffffffffffffffffffffffffffffffff82169050919050565b5f611c6a82611c41565b9050919050565b611c7a81611c60565b8114611c84575f5ffd5b50565b5f81359050611c9581611c71565b92915050565b5f5f60408385031215611cb157611cb0611c0a565b5b5f611cbe85828601611c2d565b9250506020611ccf85828601611c87565b9150509250929050565b5f61ffff82169050919050565b611cef81611cd9565b82525050565b5f602082019050611d085f830184611ce6565b92915050565b5f67ffffffffffffffff82169050919050565b611d2a81611d0e565b8114611d34575f5ffd5b50565b5f81359050611d4581611d21565b92915050565b5f8115159050919050565b611d5f81611d4b565b8114611d69575f5ffd5b50565b5f81359050611d7a81611d56565b92915050565b5f5f5f5f60808587031215611d9857611d97611c0a565b5b5f611da587828801611c2d565b9450506020611db687828801611c87565b9350506040611dc787828801611d37565b9250506060611dd887828801611d6c565b91505092959194509250565b5f60208284031215611df957611df8611c0a565b5b5f611e0684828501611c2d565b91505092915050565b611e1881611c60565b82525050565b611e2781611d0e565b82525050565b611e3681611d4b565b82525050565b611e4581611c0e565b82525050565b60a082015f820151611e5f5f850182611e0f565b506020820151611e726020850182611e1e565b506040820151611e856040850182611e1e565b506060820151611e986060850182611e2d565b506080820151611eab6080850182611e3c565b50505050565b5f60a082019050611ec45f830184611e4b565b92915050565b5f60208284031215611edf57611ede611c0a565b5b5f611eec84828501611c87565b91505092915050565b611efe81611cd9565b8114611f08575f5ffd5b50565b5f81359050611f1981611ef5565b92915050565b5f60208284031215611f3457611f33611c0a565b5b5f611f4184828501611f0b565b91505092915050565b5f5f5f60608486031215611f6157611f60611c0a565b5b5f611f6e86828701611c2d565b9350506020611f7f86828701611c87565b9250506040611f9086828701611c2d565b9150509250925092565b611fa381611c60565b82525050565b5f602082019050611fbc5f830184611f9a565b92915050565b5f5f60408385031215611fd857611fd7611c0a565b5b5f611fe585828601611c87565b9250506020611ff685828601611c87565b9150509250929050565b61200981611c0e565b82525050565b5f6020820190506120225f830184612000565b92915050565b5f5f5f6060848603121561203f5761203e611c0a565b5b5f61204c86828701611c87565b935050602061205d86828701611d37565b925050604061206e86828701611d37565b9150509250925092565b61208181611d4b565b82525050565b5f60208201905061209a5f830184612078565b92915050565b5f82825260208201905092915050565b7f4e6f74206d65726368616e74206f776e657200000000000000000000000000005f82015250565b5f6120e46012836120a0565b91506120ef826120b0565b602082019050919050565b5f6020820190508181035f830152612111816120d8565b9050919050565b7f4e6f2062616c616e6365000000000000000000000000000000000000000000005f82015250565b5f61214c600a836120a0565b915061215782612118565b602082019050919050565b5f6020820190508181035f83015261217981612140565b9050919050565b7f4e487b71000000000000000000000000000000000000000000000000000000005f52601160045260245ffd5b5f6121b782611c0e565b91506121c283611c0e565b92508282019050808211156121da576121d9612180565b5b92915050565b5f81905092915050565b50565b5f6121f85f836121e0565b9150612203826121ea565b5f82019050919050565b5f612217826121ed565b9150819050919050565b7f455448207472616e73666572206661696c6564000000000000000000000000005f82015250565b5f6122556013836120a0565b915061226082612221565b602082019050919050565b5f6020820190508181035f83015261228281612249565b9050919050565b5f60408201905061229c5f830185612000565b6122a96020830184611f9a565b9392505050565b7f496e76616c6964207061796f75742061646472657373000000000000000000005f82015250565b5f6122e46016836120a0565b91506122ef826122b0565b602082019050919050565b5f6020820190508181035f830152612311816122d8565b9050919050565b7f496e76616c696420706572696f640000000000000000000000000000000000005f82015250565b5f61234c600e836120a0565b915061235782612318565b602082019050919050565b5f6020820190508181035f83015261237981612340565b9050919050565b7f416c7265616479207365740000000000000000000000000000000000000000005f82015250565b5f6123b4600b836120a0565b91506123bf82612380565b602082019050919050565b5f6020820190508181035f8301526123e1816123a8565b9050919050565b7f4d65726368616e74206e6f7420616374697665000000000000000000000000005f82015250565b5f61241c6013836120a0565b9150612427826123e8565b602082019050919050565b5f6020820190508181035f83015261244981612410565b9050919050565b7f546f6b656e206e6f7420616363657074656400000000000000000000000000005f82015250565b5f6124846012836120a0565b915061248f82612450565b602082019050919050565b5f6020820190508181035f8301526124b181612478565b9050919050565b5f6124c282611c0e565b91506124cd83611c0e565b92508282026124db81611c0e565b915082820484148315176124f2576124f1612180565b5b5092915050565b7f4e487b71000000000000000000000000000000000000000000000000000000005f52601260045260245ffd5b5f61253082611c0e565b915061253b83611c0e565b92508261254b5761254a6124f9565b5b828204905092915050565b5f61256082611c0e565b915061256b83611c0e565b925082820390508181111561258357612582612180565b5b92915050565b7f496e636f72726563742045544820616d6f756e740000000000000000000000005f82015250565b5f6125bd6014836120a0565b91506125c882612589565b602082019050919050565b5f6020820190508181035f8301526125ea816125b1565b9050919050565b7f455448206e6f74206578706563746564000000000000000000000000000000005f82015250565b5f6126256010836120a0565b9150612630826125f1565b602082019050919050565b5f6020820190508181035f83015261265281612619565b9050919050565b5f61266382611c0e565b91507fffffffffffffffffffffffffffffffffffffffffffffffffffffffffffffffff820361269557612694612180565b5b600182019050919050565b6126a981611d0e565b82525050565b5f6060820190506126c25f830186612000565b6126cf6020830185612000565b6126dc60408301846126a0565b949350505050565b5f6060820190506126f75f830186611f9a565b6127046020830185612000565b61271160408301846126a0565b949350505050565b7f46656520746f6f206869676800000000000000000000000000000000000000005f82015250565b5f61274d600c836120a0565b915061275882612719565b602082019050919050565b5f6020820190508181035f83015261277a81612741565b9050919050565b7f496e76616c6964207072696365000000000000000000000000000000000000005f82015250565b5f6127b5600d836120a0565b91506127c082612781565b602082019050919050565b5f6020820190508181035f8301526127e2816127a9565b9050919050565b7f4e6f2066656573000000000000000000000000000000000000000000000000005f82015250565b5f61281d6007836120a0565b9150612828826127e9565b602082019050919050565b5f6020820190508181035f83015261284a81612811565b9050919050565b5f6040820190506128645f830185611f9a565b6128716020830184612000565b9392505050565b5f60608201905061288b5f830186611f9a565b6128986020830185611f9a565b6128a56040830184612000565b94935050505056fea2646970667358221220e93386ae0087208f733377fc68f06c7e186c41f6e7d7825952d4a3fd62d7d39d64736f6c634300081c0033","linkReferences":{}},"methodIdentifiers":{"getMerchantBalance(uint256,address)":"963fc8a2","getMerchantPlan(uint256)":"27062b45","getMerchantPrice(uint256,address)":"eea6e7f8","isMerchantTokenAccepted(uint256,address)":"fa8d0804","owner()":"8da5cb5b","platformFeeBps()":"22dcd13e","registerMerchant(address,uint64,uint64)":"d8ab2550","renounceOwnership()":"715018a6","setMerchantPrice(uint256,address,uint256)":"5f815ade","setPlatformFee(uint16)":"5cbc742c","setSubscriptionNFT(address)":"525a809d","subscribe(uint256,address)":"59e6951d","subscriptionNFT()":"85cf7244","transferOwnership(address)":"f2fde38b","updateMerchantPlan(uint256,address,uint64,bool)":"25969326","withdrawMerchantBalance(uint256,address)":"135b31f8","withdrawPlatformFees(address,address)":"8bcc3339"},"id":55}