{"abi":[{"type":"constructor","inputs":[{"name":"uri","type":"string","internalType":"string"},{"name":"_manager","type":"address","internalType":"address"},{"name":"_callbackSender","type":"address","internalType":"address"}],"stateMutability":"nonpayable"},{"type":"receive","stateMutability":"payable"},{"type":"function","name":"DEFAULT_ADMIN_ROLE","inputs":[],"outputs":[{"name":"","type":"bytes32","internalType":"bytes32"}],"stateMutability":"view"},{"type":"function","name":"MANAGER_ROLE","inputs":[],"outputs":[{"name":"","type":"bytes32","internalType":"bytes32"}],"stateMutability":"view"},{"type":"function","name":"REACTIVE_ROLE","inputs":[],"outputs":[{"name":"","type":"bytes32","internalType":"bytes32"}],"stateMutability":"view"},{"type":"function","name":"balanceOf","inputs":[{"name":"account","type":"address","internalType":"address"},{"name":"id","type":"uint256","internalType":"uint256"}],"outputs":[{"name":"","type":"uint256","internalType":"uint256"}],"stateMutability":"view"},{"type":"function","name":"balanceOfBatch","inputs":[{"name":"accounts","type":"address[]","internalType":"address[]"},{"name":"ids","type":"uint256[]","internalType":"uint256[]"}],"outputs":[{"name":"","type":"uint256[]","internalType":"uint256[]"}],"stateMutability":"view"},{"type":"function","name":"burnExpired","inputs":[{"name":"user","type":"address","internalType":"address"},{"name":"merchantId","type":"uint256","internalType":"uint256"}],"outputs":[],"stateMutability":"nonpayable"},{"type":"function","name":"coverDebt","inputs":[],"outputs":[],"stateMutability":"nonpayable"},{"type":"function","name":"getRemainingTime","inputs":[{"name":"user","type":"address","internalType":"address"},{"name":"merchantId","type":"uint256","internalType":"uint256"}],"outputs":[{"name":"","type":"uint256","internalType":"uint256"}],"stateMutability":"view"},{"type":"function","name":"getRoleAdmin","inputs":[{"name":"role","type":"bytes32","internalType":"bytes32"}],"outputs":[{"name":"","type":"bytes32","internalType":"bytes32"}],"stateMutability":"view"},{"type":"function","name":"getSubscriptionStatus","inputs":[{"name":"user","type":"address","internalType":"address"},{"name":"merchantId","type":"uint256","internalType":"uint256"}],"outputs":[{"name":"","type":"tuple","internalType":"struct ISubscriptionTypes.SubscriptionStatus","components":[{"name":"expiresAt","type":"uint64","internalType":"uint64"},{"name":"startedAt","type":"uint64","internalType":"uint64"},{"name":"renewalCount","type":"uint32","internalType":"uint32"},{"name":"lastPaymentAmount","type":"uint128","internalType":"uint128"},{"name":"paymentToken","type":"address","internalType":"address"},{"name":"autoRenew","type":"bool","internalType":"bool"}]}],"stateMutability":"view"},{"type":"function","name":"grantRole","inputs":[{"name":"role","type":"bytes32","internalType":"bytes32"},{"name":"account","type":"address","internalType":"address"}],"outputs":[],"stateMutability":"nonpayable"},{"type":"function","name":"hasRole","inputs":[{"name":"role","type":"bytes32","internalType":"bytes32"},{"name":"account","type":"address","internalType":"address"}],"outputs":[{"name":"","type":"bool","internalType":"bool"}],"stateMutability":"view"},{"type":"function","name":"isApprovedForAll","inputs":[{"name":"account","type":"address","internalType":"address"},{"name":"operator","type":"address","internalType":"address"}],"outputs":[{"name":"","type":"bool","internalType":"bool"}],"stateMutability":"view"},{"type":"function","name":"isInGracePeriod","inputs":[{"name":"user","type":"address","internalType":"address"},{"name":"merchantId","type":"uint256","internalType":"uint256"}],"outputs":[{"name":"","type":"bool","internalType":"bool"}],"stateMutability":"view"},{"type":"function","name":"isSubscriptionActive","inputs":[{"name":"user","type":"address","internalType":"address"},{"name":"merchantId","type":"uint256","internalType":"uint256"}],"outputs":[{"name":"","type":"bool","internalType":"bool"}],"stateMutability":"view"},{"type":"function","name":"mintOrRenew","inputs":[{"name":"user","type":"address","internalType":"address"},{"name":"merchantId","type":"uint256","internalType":"uint256"},{"name":"additionalPeriod","type":"uint64","internalType":"uint64"}],"outputs":[],"stateMutability":"nonpayable"},{"type":"function","name":"onPaymentProcessed","inputs":[{"name":"user","type":"address","internalType":"address"},{"name":"merchantId","type":"uint256","internalType":"uint256"},{"name":"expiresAt","type":"uint64","internalType":"uint64"}],"outputs":[],"stateMutability":"nonpayable"},{"type":"function","name":"pay","inputs":[],"outputs":[{"name":"","type":"uint256","internalType":"uint256"}],"stateMutability":"payable"},{"type":"function","name":"pay","inputs":[{"name":"amount","type":"uint256","internalType":"uint256"}],"outputs":[],"stateMutability":"nonpayable"},{"type":"function","name":"processBatchExpiry","inputs":[{"name":"users","type":"address[]","internalType":"address[]"},{"name":"merchantIds","type":"uint256[]","internalType":"uint256[]"}],"outputs":[],"stateMutability":"nonpayable"},{"type":"function","name":"reactiveContract","inputs":[],"outputs":[{"name":"","type":"address","internalType":"address"}],"stateMutability":"view"},{"type":"function","name":"renounceRole","inputs":[{"name":"role","type":"bytes32","internalType":"bytes32"},{"name":"callerConfirmation","type":"address","internalType":"address"}],"outputs":[],"stateMutability":"nonpayable"},{"type":"function","name":"revokeRole","inputs":[{"name":"role","type":"bytes32","internalType":"bytes32"},{"name":"account","type":"address","internalType":"address"}],"outputs":[],"stateMutability":"nonpayable"},{"type":"function","name":"safeBatchTransferFrom","inputs":[{"name":"from","type":"address","internalType":"address"},{"name":"to","type":"address","internalType":"address"},{"name":"ids","type":"uint256[]","internalType":"uint256[]"},{"name":"values","type":"uint256[]","internalType":"uint256[]"},{"name":"data","type":"bytes","internalType":"bytes"}],"outputs":[],"stateMutability":"nonpayable"},{"type":"function","name":"safeTransferFrom","inputs":[{"name":"from","type":"address","internalType":"address"},{"name":"to","type":"address","internalType":"address"},{"name":"id","type":"uint256","internalType":"uint256"},{"name":"value","type":"uint256","internalType":"uint256"},{"name":"data","type":"bytes","internalType":"bytes"}],"outputs":[],"stateMutability":"nonpayable"},{"type":"function","name":"setApprovalForAll","inputs":[{"name":"operator","type":"address","internalType":"address"},{"name":"approved","type":"bool","internalType":"bool"}],"outputs":[],"stateMutability":"nonpayable"},{"type":"function","name":"setMerchantGracePeriod","inputs":[{"name":"merchantId","type":"uint256","internalType":"uint256"},{"name":"gracePeriod","type":"uint64","internalType":"uint64"}],"outputs":[],"stateMutability":"nonpayable"},{"type":"function","name":"setReactiveContract","inputs":[{"name":"_reactive","type":"address","internalType":"address"}],"outputs":[],"stateMutability":"nonpayable"},{"type":"function","name":"subscriptionManager","inputs":[],"outputs":[{"name":"","type":"address","internalType":"address"}],"stateMutability":"view"},{"type":"function","name":"supportsInterface","inputs":[{"name":"interfaceId","type":"bytes4","internalType":"bytes4"}],"outputs":[{"name":"","type":"bool","internalType":"bool"}],"stateMutability":"view"},{"type":"function","name":"uri","inputs":[{"name":"","type":"uint256","internalType":"uint256"}],"outputs":[{"name":"","type":"string","internalType":"string"}],"stateMutability":"view"},{"type":"event","name":"ApprovalForAll","inputs":[{"name":"account","type":"address","indexed":true,"internalType":"address"},{"name":"operator","type":"address","indexed":true,"internalType":"address"},{"name":"approved","type":"bool","indexed":false,"internalType":"bool"}],"anonymous":false},{"type":"event","name":"RoleAdminChanged","inputs":[{"name":"role","type":"bytes32","indexed":true,"internalType":"bytes32"},{"name":"previousAdminRole","type":"bytes32","indexed":true,"internalType":"bytes32"},{"name":"newAdminRole","type":"bytes32","indexed":true,"internalType":"bytes32"}],"anonymous":false},{"type":"event","name":"RoleGranted","inputs":[{"name":"role","type":"bytes32","indexed":true,"internalType":"bytes32"},{"name":"account","type":"address","indexed":true,"internalType":"address"},{"name":"sender","type":"address","indexed":true,"internalType":"address"}],"anonymous":false},{"type":"event","name":"RoleRevoked","inputs":[{"name":"role","type":"bytes32","indexed":true,"internalType":"bytes32"},{"name":"account","type":"address","indexed":true,"internalType":"address"},{"name":"sender","type":"address","indexed":true,"internalType":"address"}],"anonymous":false},{"type":"event","name":"SubscriptionBurned","inputs":[{"name":"user","type":"address","indexed":true,"internalType":"address"},{"name":"merchantId","type":"uint256","indexed":true,"internalType":"uint256"}],"anonymous":false},{"type":"event","name":"SubscriptionExpired","inputs":[{"name":"user","type":"address","indexed":true,"internalType":"address"},{"name":"merchantId","type":"uint256","indexed":true,"internalType":"uint256"}],"anonymous":false},{"type":"event","name":"SubscriptionMinted","inputs":[{"name":"user","type":"address","indexed":true,"internalType":"address"},{"name":"merchantId","type":"uint256","indexed":true,"internalType":"uint256"},{"name":"expiresAt","type":"uint64","indexed":false,"internalType":"uint64"},{"name":"renewalCount","type":"uint32","indexed":false,"internalType":"uint32"}],"anonymous":false},{"type":"event","name":"SubscriptionRenewed","inputs":[{"name":"user","type":"address","indexed":true,"internalType":"address"},{"name":"merchantId","type":"uint256","indexed":true,"internalType":"uint256"},{"name":"newExpiresAt","type":"uint64","indexed":false,"internalType":"uint64"},{"name":"renewalCount","type":"uint32","indexed":false,"internalType":"uint32"}],"anonymous":false},{"type":"event","name":"TransferBatch","inputs":[{"name":"operator","type":"address","indexed":true,"internalType":"address"},{"name":"from","type":"address","indexed":true,"internalType":"address"},{"name":"to","type":"address","indexed":true,"internalType":"address"},{"name":"ids","type":"uint256[]","indexed":false,"internalType":"uint256[]"},{"name":"values","type":"uint256[]","indexed":false,"internalType":"uint256[]"}],"anonymous":false},{"type":"event","name":"TransferSingle","inputs":[{"name":"operator","type":"address","indexed":true,"internalType":"address"},{"name":"from","type":"address","indexed":true,"internalType":"address"},{"name":"to","type":"address","indexed":true,"internalType":"address"},{"name":"id","type":"uint256","indexed":false,"internalType":"uint256"},{"name":"value","type":"uint256","indexed":false,"internalType":"uint256"}],"anonymous":false},{"type":"event","name":"URI","inputs":[{"name":"value","type":"string","indexed":false,"internalType":"string"},{"name":"id","type":"uint256","indexed":true,"internalType":"uint256"}],"anonymous":false},{"type":"error","name":"AccessControlBadConfirmation","inputs":[]},{"type":"error","name":"AccessControlUnauthorizedAccount","inputs":[{"name":"account","type":"address","internalType":"address"},{"name":"neededRole","type":"bytes32","internalType":"bytes32"}]},{"type":"error","name":"ERC1155InsufficientBalance","inputs":[{"name":"sender","type":"address","internalType":"address"},{"name":"balance","type":"uint256","internalType":"uint256"},{"name":"needed","type":"uint256","internalType":"uint256"},{"name":"tokenId","type":"uint256","internalType":"uint256"}]},{"type":"error","name":"ERC1155InvalidApprover","inputs":[{"name":"approver","type":"address","internalType":"address"}]},{"type":"error","name":"ERC1155InvalidArrayLength","inputs":[{"name":"idsLength","type":"uint256","internalType":"uint256"},{"name":"valuesLength","type":"uint256","internalType":"uint256"}]},{"type":"error","name":"ERC1155InvalidOperator","inputs":[{"name":"operator","type":"address","internalType":"address"}]},{"type":"error","name":"ERC1155InvalidReceiver","inputs":[{"name":"receiver","type":"address","internalType":"address"}]},{"type":"error","name":"ERC1155InvalidSender","inputs":[{"name":"sender","type":"address","internalType":"address"}]},{"type":"error","name":"ERC1155MissingApprovalForAll","inputs":[{"name":"operator","type":"address","internalType":"address"},{"name":"owner","type":"address","internalType":"address"}]},{"type":"error","name":"ReentrancyGuardReentrantCall","inputs":[]}],"bytecode":{"object":"0x608060405234801561000f575f5ffd5b50604051614f06380380614f06833981810160405281019061003191906104da565b80836100428161016760201b60201c565b5060016004819055503360075f6101000a81548173ffffffffffffffffffffffffffffffffffffffff021916908373ffffffffffffffffffffffffffffffffffffffff1602179055508060055f6101000a81548173ffffffffffffffffffffffffffffffffffffffff021916908373ffffffffffffffffffffffffffffffffffffffff1602179055506100da8161017a60201b60201c565b506100ed5f5f1b336101d260201b60201c565b5061011e7f241ecf16d79d0f8dbfb92cbc07fe17840425976cf0667f022fe9877caa831b08836101d260201b60201c565b5081600a5f6101000a81548173ffffffffffffffffffffffffffffffffffffffff021916908373ffffffffffffffffffffffffffffffffffffffff160217905550505050610825565b80600290816101769190610756565b5050565b600160065f8373ffffffffffffffffffffffffffffffffffffffff1673ffffffffffffffffffffffffffffffffffffffff1681526020019081526020015f205f6101000a81548160ff02191690831515021790555050565b5f6101e383836102c860201b60201c565b6102be57600160035f8581526020019081526020015f205f015f8473ffffffffffffffffffffffffffffffffffffffff1673ffffffffffffffffffffffffffffffffffffffff1681526020019081526020015f205f6101000a81548160ff02191690831515021790555061025b61032c60201b60201c565b73ffffffffffffffffffffffffffffffffffffffff168273ffffffffffffffffffffffffffffffffffffffff16847f2f8788117e7eff1d82e926ec794901d17c78024a50270940304540a733656f0d60405160405180910390a4600190506102c2565b5f90505b92915050565b5f60035f8481526020019081526020015f205f015f8373ffffffffffffffffffffffffffffffffffffffff1673ffffffffffffffffffffffffffffffffffffffff1681526020019081526020015f205f9054906101000a900460ff16905092915050565b5f33905090565b5f604051905090565b5f5ffd5b5f5ffd5b5f5ffd5b5f5ffd5b5f601f19601f8301169050919050565b7f4e487b71000000000000000000000000000000000000000000000000000000005f52604160045260245ffd5b6103928261034c565b810181811067ffffffffffffffff821117156103b1576103b061035c565b5b80604052505050565b5f6103c3610333565b90506103cf8282610389565b919050565b5f67ffffffffffffffff8211156103ee576103ed61035c565b5b6103f78261034c565b9050602081019050919050565b8281835e5f83830152505050565b5f61042461041f846103d4565b6103ba565b9050828152602081018484840111156104405761043f610348565b5b61044b848285610404565b509392505050565b5f82601f83011261046757610466610344565b5b8151610477848260208601610412565b91505092915050565b5f73ffffffffffffffffffffffffffffffffffffffff82169050919050565b5f6104a982610480565b9050919050565b6104b98161049f565b81146104c3575f5ffd5b50565b5f815190506104d4816104b0565b92915050565b5f5f5f606084860312156104f1576104f061033c565b5b5f84015167ffffffffffffffff81111561050e5761050d610340565b5b61051a86828701610453565b935050602061052b868287016104c6565b925050604061053c868287016104c6565b9150509250925092565b5f81519050919050565b7f4e487b71000000000000000000000000000000000000000000000000000000005f52602260045260245ffd5b5f600282049050600182168061059457607f821691505b6020821081036105a7576105a6610550565b5b50919050565b5f819050815f5260205f209050919050565b5f6020601f8301049050919050565b5f82821b905092915050565b5f600883026106097fffffffffffffffffffffffffffffffffffffffffffffffffffffffffffffffff826105ce565b61061386836105ce565b95508019841693508086168417925050509392505050565b5f819050919050565b5f819050919050565b5f61065761065261064d8461062b565b610634565b61062b565b9050919050565b5f819050919050565b6106708361063d565b61068461067c8261065e565b8484546105da565b825550505050565b5f5f905090565b61069b61068c565b6106a6818484610667565b505050565b5b818110156106c9576106be5f82610693565b6001810190506106ac565b5050565b601f82111561070e576106df816105ad565b6106e8846105bf565b810160208510156106f7578190505b61070b610703856105bf565b8301826106ab565b50505b505050565b5f82821c905092915050565b5f61072e5f1984600802610713565b1980831691505092915050565b5f610746838361071f565b9150826002028217905092915050565b61075f82610546565b67ffffffffffffffff8111156107785761077761035c565b5b610782825461057d565b61078d8282856106cd565b5f60209050601f8311600181146107be575f84156107ac578287015190505b6107b6858261073b565b86555061081d565b601f1984166107cc866105ad565b5f5b828110156107f3578489015182556001820191506020850194506020810190506107ce565b86831015610810578489015161080c601f89168261071f565b8355505b6001600288020188555050505b505050505050565b6146d4806108325f395ff3fe6080604052600436106101da575f3560e01c80638c1973a811610101578063c290d69111610094578063e985e9c511610063578063e985e9c5146106d1578063e9e0d4db1461070d578063ec87621c14610735578063f242432a1461075f576101e1565b8063c290d69114610631578063d547741f14610659578063db9c6e4714610681578063dee10e07146106a9576101e1565b8063a22cb465116100d0578063a22cb4651461058f578063a24fb415146105b7578063b66e25a2146105df578063bf158fd214610607576101e1565b80638c1973a8146104c557806391d148541461050157806398f327d31461053d578063a217fddf14610565576101e1565b80632f2ff15d116101795780635799ce10116101485780635799ce101461041f5780637a90b990146104495780637ab48e6d1461045f5780637d69bc5114610489576101e1565b80632f2ff15d1461035757806336568abe1461037f5780633de4b5fa146103a75780634e1273f4146103e3576101e1565b80630e89341c116101b55780630e89341c146102995780631b9265b8146102d5578063248a9ca3146102f35780632eb2c2d61461032f576101e1565b8062fdd58e146101e557806301ffc9a7146102215780630cd2c4601461025d576101e1565b366101e157005b5f5ffd5b3480156101f0575f5ffd5b5061020b600480360381019061020691906133b1565b610787565b60405161021891906133fe565b60405180910390f35b34801561022c575f5ffd5b506102476004803603810190610242919061346c565b6107dc565b60405161025491906134b1565b60405180910390f35b348015610268575f5ffd5b50610283600480360381019061027e91906133b1565b6107ed565b60405161029091906135cb565b60405180910390f35b3480156102a4575f5ffd5b506102bf60048036038101906102ba91906135e4565b610993565b6040516102cc919061367f565b60405180910390f35b6102dd610a25565b6040516102ea91906133fe565b60405180910390f35b3480156102fe575f5ffd5b50610319600480360381019061031491906136d2565b610a2c565b604051610326919061370c565b60405180910390f35b34801561033a575f5ffd5b5061035560048036038101906103509190613915565b610a49565b005b348015610362575f5ffd5b5061037d600480360381019061037891906139e0565b610af0565b005b34801561038a575f5ffd5b506103a560048036038101906103a091906139e0565b610b12565b005b3480156103b2575f5ffd5b506103cd60048036038101906103c891906133b1565b610b8d565b6040516103da91906134b1565b60405180910390f35b3480156103ee575f5ffd5b5061040960048036038101906104049190613ade565b610c04565b6040516104169190613c0b565b60405180910390f35b34801561042a575f5ffd5b50610433610d0e565b6040516104409190613c3a565b60405180910390f35b348015610454575f5ffd5b5061045d610d33565b005b34801561046a575f5ffd5b50610473610dfd565b604051610480919061370c565b60405180910390f35b348015610494575f5ffd5b506104af60048036038101906104aa91906133b1565b610e21565b6040516104bc91906133fe565b60405180910390f35b3480156104d0575f5ffd5b506104eb60048036038101906104e691906133b1565b610ec1565b6040516104f891906134b1565b60405180910390f35b34801561050c575f5ffd5b50610527600480360381019061052291906139e0565b6110cc565b60405161053491906134b1565b60405180910390f35b348015610548575f5ffd5b50610563600480360381019061055e9190613c7d565b611130565b005b348015610570575f5ffd5b50610579611393565b604051610586919061370c565b60405180910390f35b34801561059a575f5ffd5b506105b560048036038101906105b09190613cf7565b611399565b005b3480156105c2575f5ffd5b506105dd60048036038101906105d89190613c7d565b6113af565b005b3480156105ea575f5ffd5b5061060560048036038101906106009190613de3565b611684565b005b348015610612575f5ffd5b5061061b61196f565b6040516106289190613c3a565b60405180910390f35b34801561063c575f5ffd5b50610657600480360381019061065291906135e4565b611994565b005b348015610664575f5ffd5b5061067f600480360381019061067a91906139e0565b611a2a565b005b34801561068c575f5ffd5b506106a760048036038101906106a291906133b1565b611a4c565b005b3480156106b4575f5ffd5b506106cf60048036038101906106ca9190613e61565b611bdd565b005b3480156106dc575f5ffd5b506106f760048036038101906106f29190613e9f565b611c43565b60405161070491906134b1565b60405180910390f35b348015610718575f5ffd5b50610733600480360381019061072e9190613edd565b611cd1565b005b348015610740575f5ffd5b50610749611ddb565b604051610756919061370c565b60405180910390f35b34801561076a575f5ffd5b5061078560048036038101906107809190613f08565b611dff565b005b5f5f5f8381526020019081526020015f205f8473ffffffffffffffffffffffffffffffffffffffff1673ffffffffffffffffffffffffffffffffffffffff1681526020019081526020015f2054905092915050565b5f6107e682611ea6565b9050919050565b6107f561329f565b60085f8473ffffffffffffffffffffffffffffffffffffffff1673ffffffffffffffffffffffffffffffffffffffff1681526020019081526020015f205f8381526020019081526020015f206040518060c00160405290815f82015f9054906101000a900467ffffffffffffffff1667ffffffffffffffff1667ffffffffffffffff1681526020015f820160089054906101000a900467ffffffffffffffff1667ffffffffffffffff1667ffffffffffffffff1681526020015f820160109054906101000a900463ffffffff1663ffffffff1663ffffffff168152602001600182015f9054906101000a90046fffffffffffffffffffffffffffffffff166fffffffffffffffffffffffffffffffff166fffffffffffffffffffffffffffffffff168152602001600282015f9054906101000a900473ffffffffffffffffffffffffffffffffffffffff1673ffffffffffffffffffffffffffffffffffffffff1673ffffffffffffffffffffffffffffffffffffffff1681526020016002820160149054906101000a900460ff161515151581525050905092915050565b6060600280546109a290613fc8565b80601f01602080910402602001604051908101604052809291908181526020018280546109ce90613fc8565b8015610a195780601f106109f057610100808354040283529160200191610a19565b820191905f5260205f20905b8154815290600101906020018083116109fc57829003601f168201915b50505050509050919050565b5f34905090565b5f60035f8381526020019081526020015f20600101549050919050565b5f610a52611f1f565b90508073ffffffffffffffffffffffffffffffffffffffff168673ffffffffffffffffffffffffffffffffffffffff1614158015610a975750610a958682611c43565b155b15610adb5780866040517fe237d922000000000000000000000000000000000000000000000000000000008152600401610ad2929190613ff8565b60405180910390fd5b610ae88686868686611f26565b505050505050565b610af982610a2c565b610b028161201a565b610b0c838361202e565b50505050565b610b1a611f1f565b73ffffffffffffffffffffffffffffffffffffffff168173ffffffffffffffffffffffffffffffffffffffff1614610b7e576040517f6697b23200000000000000000000000000000000000000000000000000000000815260040160405180910390fd5b610b888282612118565b505050565b5f4260085f8573ffffffffffffffffffffffffffffffffffffffff1673ffffffffffffffffffffffffffffffffffffffff1681526020019081526020015f205f8481526020019081526020015f205f015f9054906101000a900467ffffffffffffffff1667ffffffffffffffff1611905092915050565b60608151835114610c5057815183516040517f5b059991000000000000000000000000000000000000000000000000000000008152600401610c4792919061401f565b60405180910390fd5b5f835167ffffffffffffffff811115610c6c57610c6b613729565b5b604051908082528060200260200182016040528015610c9a5781602001602082028036833780820191505090505b5090505f5f90505b8451811015610d0357610cd9610cc1828761220290919063ffffffff16565b610cd4838761221590919063ffffffff16565b610787565b828281518110610cec57610ceb614046565b5b602002602001018181525050806001019050610ca2565b508091505092915050565b600b5f9054906101000a900473ffffffffffffffffffffffffffffffffffffffff1681565b5f60055f9054906101000a900473ffffffffffffffffffffffffffffffffffffffff1673ffffffffffffffffffffffffffffffffffffffff16639b6c56ec306040518263ffffffff1660e01b8152600401610d8e9190613c3a565b602060405180830381865afa158015610da9573d5f5f3e3d5ffd5b505050506040513d601f19601f82011682018060405250810190610dcd9190614087565b9050610dfa60055f9054906101000a900473ffffffffffffffffffffffffffffffffffffffff1682612228565b50565b7fe286d85d055d9c4dcf75801079a9370d8cc2d35db53d804b5b94584572b4c02281565b5f5f60085f8573ffffffffffffffffffffffffffffffffffffffff1673ffffffffffffffffffffffffffffffffffffffff1681526020019081526020015f205f8481526020019081526020015f205f015f9054906101000a900467ffffffffffffffff169050428167ffffffffffffffff1611610ea1575f915050610ebb565b428167ffffffffffffffff16610eb791906140df565b9150505b92915050565b5f5f60085f8573ffffffffffffffffffffffffffffffffffffffff1673ffffffffffffffffffffffffffffffffffffffff1681526020019081526020015f205f8481526020019081526020015f206040518060c00160405290815f82015f9054906101000a900467ffffffffffffffff1667ffffffffffffffff1667ffffffffffffffff1681526020015f820160089054906101000a900467ffffffffffffffff1667ffffffffffffffff1667ffffffffffffffff1681526020015f820160109054906101000a900463ffffffff1663ffffffff1663ffffffff168152602001600182015f9054906101000a90046fffffffffffffffffffffffffffffffff166fffffffffffffffffffffffffffffffff166fffffffffffffffffffffffffffffffff168152602001600282015f9054906101000a900473ffffffffffffffffffffffffffffffffffffffff1673ffffffffffffffffffffffffffffffffffffffff1673ffffffffffffffffffffffffffffffffffffffff1681526020016002820160149054906101000a900460ff161515151581525050905042815f015167ffffffffffffffff1610611078575f9150506110c6565b5f60095f8581526020019081526020015f205f9054906101000a900467ffffffffffffffff1690505f81835f01516110b09190614112565b90508067ffffffffffffffff1642111593505050505b92915050565b5f60035f8481526020019081526020015f205f015f8373ffffffffffffffffffffffffffffffffffffffff1673ffffffffffffffffffffffffffffffffffffffff1681526020019081526020015f205f9054906101000a900460ff16905092915050565b7fe286d85d055d9c4dcf75801079a9370d8cc2d35db53d804b5b94584572b4c02261115a8161201a565b5f60085f8673ffffffffffffffffffffffffffffffffffffffff1673ffffffffffffffffffffffffffffffffffffffff1681526020019081526020015f205f8581526020019081526020015f2090508267ffffffffffffffff16815f015f9054906101000a900467ffffffffffffffff1667ffffffffffffffff16101561138c5782815f015f6101000a81548167ffffffffffffffff021916908367ffffffffffffffff1602179055505f61120f8686610787565b036112e45742815f0160086101000a81548167ffffffffffffffff021916908367ffffffffffffffff1602179055505f815f0160106101000a81548163ffffffff021916908363ffffffff16021790555061127b8585600160405180602001604052805f81525061236f565b838573ffffffffffffffffffffffffffffffffffffffff167f31aa2b19f0a9b17bc065be5cf4520a56e748b8c69df12677014a1626cba1de5185845f0160109054906101000a900463ffffffff166040516112d792919061416b565b60405180910390a361138b565b805f01601081819054906101000a900463ffffffff168092919061130790614192565b91906101000a81548163ffffffff021916908363ffffffff16021790555050838573ffffffffffffffffffffffffffffffffffffffff167f9ca41d5b5c2d4e7d1cd25a2be36dd2c0a3a2431ec6bd3fd8d39cfb8413f0364085845f0160109054906101000a900463ffffffff1660405161138292919061416b565b60405180910390a35b5b5050505050565b5f5f1b81565b6113ab6113a4611f1f565b8383612404565b5050565b7f241ecf16d79d0f8dbfb92cbc07fe17840425976cf0667f022fe9877caa831b086113d98161201a565b5f60085f8673ffffffffffffffffffffffffffffffffffffffff1673ffffffffffffffffffffffffffffffffffffffff1681526020019081526020015f205f8581526020019081526020015f2090505f4290505f8167ffffffffffffffff16835f015f9054906101000a900467ffffffffffffffff1667ffffffffffffffff1611156114885784835f015f9054906101000a900467ffffffffffffffff166114819190614112565b90506114c1565b84826114949190614112565b905081835f0160086101000a81548167ffffffffffffffff021916908367ffffffffffffffff1602179055505b80835f015f6101000a81548167ffffffffffffffff021916908367ffffffffffffffff160217905550825f01601081819054906101000a900463ffffffff168092919061150d90614192565b91906101000a81548163ffffffff021916908363ffffffff160217905550505f836001015f6101000a8154816fffffffffffffffffffffffffffffffff02191690836fffffffffffffffffffffffffffffffff1602179055505f8360020160146101000a81548160ff0219169083151502179055505f61158d8888610787565b03611616576115ad8787600160405180602001604052805f81525061236f565b858773ffffffffffffffffffffffffffffffffffffffff167f31aa2b19f0a9b17bc065be5cf4520a56e748b8c69df12677014a1626cba1de5183865f0160109054906101000a900463ffffffff1660405161160992919061416b565b60405180910390a361167b565b858773ffffffffffffffffffffffffffffffffffffffff167f9ca41d5b5c2d4e7d1cd25a2be36dd2c0a3a2431ec6bd3fd8d39cfb8413f0364083865f0160109054906101000a900463ffffffff1660405161167292919061416b565b60405180910390a35b50505050505050565b7fe286d85d055d9c4dcf75801079a9370d8cc2d35db53d804b5b94584572b4c0226116ae8161201a565b8282905085859050146116f6576040517f08c379a00000000000000000000000000000000000000000000000000000000081526004016116ed90614207565b60405180910390fd5b5f5f90505b858590508110156119675761175086868381811061171c5761171b614046565b5b90506020020160208101906117319190613edd565b85858481811061174457611743614046565b5b9050602002013561256d565b1561195a576117a186868381811061176b5761176a614046565b5b90506020020160208101906117809190613edd565b85858481811061179357611792614046565b5b90506020020135600161278f565b60085f8787848181106117b7576117b6614046565b5b90506020020160208101906117cc9190613edd565b73ffffffffffffffffffffffffffffffffffffffff1673ffffffffffffffffffffffffffffffffffffffff1681526020019081526020015f205f85858481811061181957611818614046565b5b9050602002013581526020019081526020015f205f5f82015f6101000a81549067ffffffffffffffff02191690555f820160086101000a81549067ffffffffffffffff02191690555f820160106101000a81549063ffffffff0219169055600182015f6101000a8154906fffffffffffffffffffffffffffffffff0219169055600282015f6101000a81549073ffffffffffffffffffffffffffffffffffffffff02191690556002820160146101000a81549060ff021916905550508383828181106118e8576118e7614046565b5b9050602002013586868381811061190257611901614046565b5b90506020020160208101906119179190613edd565b73ffffffffffffffffffffffffffffffffffffffff167faeab0094d0f4ba2e37ab9c32d5eae0cbc49edafca1f7366f8ee1b6946c6dacfe60405160405180910390a35b80806001019150506116fb565b505050505050565b600a5f9054906101000a900473ffffffffffffffffffffffffffffffffffffffff1681565b60065f3373ffffffffffffffffffffffffffffffffffffffff1673ffffffffffffffffffffffffffffffffffffffff1681526020019081526020015f205f9054906101000a900460ff16611a1d576040517f08c379a0000000000000000000000000000000000000000000000000000000008152600401611a149061426f565b60405180910390fd5b611a273382612228565b50565b611a3382610a2c565b611a3c8161201a565b611a468383612118565b50505050565b611a56828261256d565b611a95576040517f08c379a0000000000000000000000000000000000000000000000000000000008152600401611a8c906142d7565b60405180910390fd5b611aa18282600161278f565b60085f8373ffffffffffffffffffffffffffffffffffffffff1673ffffffffffffffffffffffffffffffffffffffff1681526020019081526020015f205f8281526020019081526020015f205f5f82015f6101000a81549067ffffffffffffffff02191690555f820160086101000a81549067ffffffffffffffff02191690555f820160106101000a81549063ffffffff0219169055600182015f6101000a8154906fffffffffffffffffffffffffffffffff0219169055600282015f6101000a81549073ffffffffffffffffffffffffffffffffffffffff02191690556002820160146101000a81549060ff02191690555050808273ffffffffffffffffffffffffffffffffffffffff167f76711d94863851cd04d1cd45fe868ce8fc7124f4e69e723007121466e87eae5c60405160405180910390a35050565b7f241ecf16d79d0f8dbfb92cbc07fe17840425976cf0667f022fe9877caa831b08611c078161201a565b8160095f8581526020019081526020015f205f6101000a81548167ffffffffffffffff021916908367ffffffffffffffff160217905550505050565b5f60015f8473ffffffffffffffffffffffffffffffffffffffff1673ffffffffffffffffffffffffffffffffffffffff1681526020019081526020015f205f8373ffffffffffffffffffffffffffffffffffffffff1673ffffffffffffffffffffffffffffffffffffffff1681526020019081526020015f205f9054906101000a900460ff16905092915050565b5f5f1b611cdd8161201a565b5f73ffffffffffffffffffffffffffffffffffffffff16600b5f9054906101000a900473ffffffffffffffffffffffffffffffffffffffff1673ffffffffffffffffffffffffffffffffffffffff1614611d6c576040517f08c379a0000000000000000000000000000000000000000000000000000000008152600401611d639061433f565b60405180910390fd5b81600b5f6101000a81548173ffffffffffffffffffffffffffffffffffffffff021916908373ffffffffffffffffffffffffffffffffffffffff160217905550611dd67fe286d85d055d9c4dcf75801079a9370d8cc2d35db53d804b5b94584572b4c0228361202e565b505050565b7f241ecf16d79d0f8dbfb92cbc07fe17840425976cf0667f022fe9877caa831b0881565b5f611e08611f1f565b90508073ffffffffffffffffffffffffffffffffffffffff168673ffffffffffffffffffffffffffffffffffffffff1614158015611e4d5750611e4b8682611c43565b155b15611e915780866040517fe237d922000000000000000000000000000000000000000000000000000000008152600401611e88929190613ff8565b60405180910390fd5b611e9e8686868686612831565b505050505050565b5f7f7965db0b000000000000000000000000000000000000000000000000000000007bffffffffffffffffffffffffffffffffffffffffffffffffffffffff1916827bffffffffffffffffffffffffffffffffffffffffffffffffffffffff19161480611f185750611f1782612937565b5b9050919050565b5f33905090565b5f73ffffffffffffffffffffffffffffffffffffffff168473ffffffffffffffffffffffffffffffffffffffff1603611f96575f6040517f57f447ce000000000000000000000000000000000000000000000000000000008152600401611f8d9190613c3a565b60405180910390fd5b5f73ffffffffffffffffffffffffffffffffffffffff168573ffffffffffffffffffffffffffffffffffffffff1603612006575f6040517f01a83514000000000000000000000000000000000000000000000000000000008152600401611ffd9190613c3a565b60405180910390fd5b6120138585858585612a18565b5050505050565b61202b81612026611f1f565b612ac4565b50565b5f61203983836110cc565b61210e57600160035f8581526020019081526020015f205f015f8473ffffffffffffffffffffffffffffffffffffffff1673ffffffffffffffffffffffffffffffffffffffff1681526020019081526020015f205f6101000a81548160ff0219169083151502179055506120ab611f1f565b73ffffffffffffffffffffffffffffffffffffffff168273ffffffffffffffffffffffffffffffffffffffff16847f2f8788117e7eff1d82e926ec794901d17c78024a50270940304540a733656f0d60405160405180910390a460019050612112565b5f90505b92915050565b5f61212383836110cc565b156121f8575f60035f8581526020019081526020015f205f015f8473ffffffffffffffffffffffffffffffffffffffff1673ffffffffffffffffffffffffffffffffffffffff1681526020019081526020015f205f6101000a81548160ff021916908315150217905550612195611f1f565b73ffffffffffffffffffffffffffffffffffffffff168273ffffffffffffffffffffffffffffffffffffffff16847ff6391f5c32d9c69d2a47ea670b442974b53935d1edc7fd64eb21e047a839171b60405160405180910390a4600190506121fc565b5f90505b92915050565b5f60208202602084010151905092915050565b5f60208202602084010151905092915050565b8047101561226b576040517f08c379a0000000000000000000000000000000000000000000000000000000008152600401612262906143a7565b60405180910390fd5b5f81111561236b575f8273ffffffffffffffffffffffffffffffffffffffff16825f67ffffffffffffffff8111156122a6576122a5613729565b5b6040519080825280601f01601f1916602001820160405280156122d85781602001600182028036833780820191505090505b506040516122e69190614409565b5f6040518083038185875af1925050503d805f8114612320576040519150601f19603f3d011682016040523d82523d5f602084013e612325565b606091505b5050905080612369576040517f08c379a000000000000000000000000000000000000000000000000000000000815260040161236090614469565b60405180910390fd5b505b5050565b5f73ffffffffffffffffffffffffffffffffffffffff168473ffffffffffffffffffffffffffffffffffffffff16036123df575f6040517f57f447ce0000000000000000000000000000000000000000000000000000000081526004016123d69190613c3a565b60405180910390fd5b5f5f6123eb8585612b15565b915091506123fc5f87848487612a18565b505050505050565b5f73ffffffffffffffffffffffffffffffffffffffff168273ffffffffffffffffffffffffffffffffffffffff1603612474575f6040517fced3e10000000000000000000000000000000000000000000000000000000000815260040161246b9190613c3a565b60405180910390fd5b8060015f8573ffffffffffffffffffffffffffffffffffffffff1673ffffffffffffffffffffffffffffffffffffffff1681526020019081526020015f205f8473ffffffffffffffffffffffffffffffffffffffff1673ffffffffffffffffffffffffffffffffffffffff1681526020019081526020015f205f6101000a81548160ff0219169083151502179055508173ffffffffffffffffffffffffffffffffffffffff168373ffffffffffffffffffffffffffffffffffffffff167f17307eab39ab6107e8899845ad3d59bd9653f200f220920489ca2b5937696c318360405161256091906134b1565b60405180910390a3505050565b5f5f6125798484610787565b03612586575f9050612789565b5f60085f8573ffffffffffffffffffffffffffffffffffffffff1673ffffffffffffffffffffffffffffffffffffffff1681526020019081526020015f205f8481526020019081526020015f206040518060c00160405290815f82015f9054906101000a900467ffffffffffffffff1667ffffffffffffffff1667ffffffffffffffff1681526020015f820160089054906101000a900467ffffffffffffffff1667ffffffffffffffff1667ffffffffffffffff1681526020015f820160109054906101000a900463ffffffff1663ffffffff1663ffffffff168152602001600182015f9054906101000a90046fffffffffffffffffffffffffffffffff166fffffffffffffffffffffffffffffffff166fffffffffffffffffffffffffffffffff168152602001600282015f9054906101000a900473ffffffffffffffffffffffffffffffffffffffff1673ffffffffffffffffffffffffffffffffffffffff1673ffffffffffffffffffffffffffffffffffffffff1681526020016002820160149054906101000a900460ff161515151581525050905042815f015167ffffffffffffffff161061273c575f915050612789565b5f60095f8581526020019081526020015f205f9054906101000a900467ffffffffffffffff1690505f81835f01516127749190614112565b90508067ffffffffffffffff16421193505050505b92915050565b5f73ffffffffffffffffffffffffffffffffffffffff168373ffffffffffffffffffffffffffffffffffffffff16036127ff575f6040517f01a835140000000000000000000000000000000000000000000000000000000081526004016127f69190613c3a565b60405180910390fd5b5f5f61280b8484612b15565b9150915061282a855f848460405180602001604052805f815250612a18565b5050505050565b5f73ffffffffffffffffffffffffffffffffffffffff168473ffffffffffffffffffffffffffffffffffffffff16036128a1575f6040517f57f447ce0000000000000000000000000000000000000000000000000000000081526004016128989190613c3a565b60405180910390fd5b5f73ffffffffffffffffffffffffffffffffffffffff168573ffffffffffffffffffffffffffffffffffffffff1603612911575f6040517f01a835140000000000000000000000000000000000000000000000000000000081526004016129089190613c3a565b60405180910390fd5b5f5f61291d8585612b15565b9150915061292e8787848487612a18565b50505050505050565b5f7fd9b67a26000000000000000000000000000000000000000000000000000000007bffffffffffffffffffffffffffffffffffffffffffffffffffffffff1916827bffffffffffffffffffffffffffffffffffffffffffffffffffffffff19161480612a0157507f0e89341c000000000000000000000000000000000000000000000000000000007bffffffffffffffffffffffffffffffffffffffffffffffffffffffff1916827bffffffffffffffffffffffffffffffffffffffffffffffffffffffff1916145b80612a115750612a1082612b45565b5b9050919050565b612a2485858585612bae565b5f73ffffffffffffffffffffffffffffffffffffffff168473ffffffffffffffffffffffffffffffffffffffff1614612abd575f612a60611f1f565b90506001845103612aac575f612a7f5f8661221590919063ffffffff16565b90505f612a955f8661221590919063ffffffff16565b9050612aa5838989858589612f41565b5050612abb565b612aba8187878787876130f0565b5b505b5050505050565b612ace82826110cc565b612b115780826040517fe2517d3f000000000000000000000000000000000000000000000000000000008152600401612b08929190614487565b60405180910390fd5b5050565b60608060405191506001825283602083015260408201905060018152826020820152604081016040529250929050565b5f7f01ffc9a7000000000000000000000000000000000000000000000000000000007bffffffffffffffffffffffffffffffffffffffffffffffffffffffff1916827bffffffffffffffffffffffffffffffffffffffffffffffffffffffff1916149050919050565b8051825114612bf857815181516040517f5b059991000000000000000000000000000000000000000000000000000000008152600401612bef92919061401f565b60405180910390fd5b5f612c01611f1f565b90505f5f90505b8351811015612e00575f612c25828661221590919063ffffffff16565b90505f612c3b838661221590919063ffffffff16565b90505f73ffffffffffffffffffffffffffffffffffffffff168873ffffffffffffffffffffffffffffffffffffffff1614612d5e575f5f5f8481526020019081526020015f205f8a73ffffffffffffffffffffffffffffffffffffffff1673ffffffffffffffffffffffffffffffffffffffff1681526020019081526020015f2054905081811015612d0a57888183856040517f03dee4c5000000000000000000000000000000000000000000000000000000008152600401612d0194939291906144ae565b60405180910390fd5b8181035f5f8581526020019081526020015f205f8b73ffffffffffffffffffffffffffffffffffffffff1673ffffffffffffffffffffffffffffffffffffffff1681526020019081526020015f2081905550505b5f73ffffffffffffffffffffffffffffffffffffffff168773ffffffffffffffffffffffffffffffffffffffff1614612df357805f5f8481526020019081526020015f205f8973ffffffffffffffffffffffffffffffffffffffff1673ffffffffffffffffffffffffffffffffffffffff1681526020019081526020015f205f828254612deb91906144f1565b925050819055505b5050806001019050612c08565b506001835103612ebb575f612e1e5f8561221590919063ffffffff16565b90505f612e345f8561221590919063ffffffff16565b90508573ffffffffffffffffffffffffffffffffffffffff168773ffffffffffffffffffffffffffffffffffffffff168473ffffffffffffffffffffffffffffffffffffffff167fc3d58168c5ae7397731d063d5bbf3d657854427343f4c083240f7aacaa2d0f628585604051612eac92919061401f565b60405180910390a45050612f3a565b8373ffffffffffffffffffffffffffffffffffffffff168573ffffffffffffffffffffffffffffffffffffffff168273ffffffffffffffffffffffffffffffffffffffff167f4a39dc06d4c0dbc64b70af90fd698a233a518aa5d07e595d983b8c0526c8f7fb8686604051612f31929190614524565b60405180910390a45b5050505050565b5f8473ffffffffffffffffffffffffffffffffffffffff163b11156130e8578373ffffffffffffffffffffffffffffffffffffffff1663f23a6e6187878686866040518663ffffffff1660e01b8152600401612fa19594939291906145a1565b6020604051808303815f875af1925050508015612fdc57506040513d601f19601f82011682018060405250810190612fd9919061460d565b60015b61305d573d805f811461300a576040519150601f19603f3d011682016040523d82523d5f602084013e61300f565b606091505b505f81510361305557846040517f57f447ce00000000000000000000000000000000000000000000000000000000815260040161304c9190613c3a565b60405180910390fd5b805160208201fd5b63f23a6e6160e01b7bffffffffffffffffffffffffffffffffffffffffffffffffffffffff1916817bffffffffffffffffffffffffffffffffffffffffffffffffffffffff1916146130e657846040517f57f447ce0000000000000000000000000000000000000000000000000000000081526004016130dd9190613c3a565b60405180910390fd5b505b505050505050565b5f8473ffffffffffffffffffffffffffffffffffffffff163b1115613297578373ffffffffffffffffffffffffffffffffffffffff1663bc197c8187878686866040518663ffffffff1660e01b8152600401613150959493929190614638565b6020604051808303815f875af192505050801561318b57506040513d601f19601f82011682018060405250810190613188919061460d565b60015b61320c573d805f81146131b9576040519150601f19603f3d011682016040523d82523d5f602084013e6131be565b606091505b505f81510361320457846040517f57f447ce0000000000000000000000000000000000000000000000000000000081526004016131fb9190613c3a565b60405180910390fd5b805160208201fd5b63bc197c8160e01b7bffffffffffffffffffffffffffffffffffffffffffffffffffffffff1916817bffffffffffffffffffffffffffffffffffffffffffffffffffffffff19161461329557846040517f57f447ce00000000000000000000000000000000000000000000000000000000815260040161328c9190613c3a565b60405180910390fd5b505b505050505050565b6040518060c001604052805f67ffffffffffffffff1681526020015f67ffffffffffffffff1681526020015f63ffffffff1681526020015f6fffffffffffffffffffffffffffffffff1681526020015f73ffffffffffffffffffffffffffffffffffffffff1681526020015f151581525090565b5f604051905090565b5f5ffd5b5f5ffd5b5f73ffffffffffffffffffffffffffffffffffffffff82169050919050565b5f61334d82613324565b9050919050565b61335d81613343565b8114613367575f5ffd5b50565b5f8135905061337881613354565b92915050565b5f819050919050565b6133908161337e565b811461339a575f5ffd5b50565b5f813590506133ab81613387565b92915050565b5f5f604083850312156133c7576133c661331c565b5b5f6133d48582860161336a565b92505060206133e58582860161339d565b9150509250929050565b6133f88161337e565b82525050565b5f6020820190506134115f8301846133ef565b92915050565b5f7fffffffff0000000000000000000000000000000000000000000000000000000082169050919050565b61344b81613417565b8114613455575f5ffd5b50565b5f8135905061346681613442565b92915050565b5f602082840312156134815761348061331c565b5b5f61348e84828501613458565b91505092915050565b5f8115159050919050565b6134ab81613497565b82525050565b5f6020820190506134c45f8301846134a2565b92915050565b5f67ffffffffffffffff82169050919050565b6134e6816134ca565b82525050565b5f63ffffffff82169050919050565b613504816134ec565b82525050565b5f6fffffffffffffffffffffffffffffffff82169050919050565b61352e8161350a565b82525050565b61353d81613343565b82525050565b61354c81613497565b82525050565b60c082015f8201516135665f8501826134dd565b50602082015161357960208501826134dd565b50604082015161358c60408501826134fb565b50606082015161359f6060850182613525565b5060808201516135b26080850182613534565b5060a08201516135c560a0850182613543565b50505050565b5f60c0820190506135de5f830184613552565b92915050565b5f602082840312156135f9576135f861331c565b5b5f6136068482850161339d565b91505092915050565b5f81519050919050565b5f82825260208201905092915050565b8281835e5f83830152505050565b5f601f19601f8301169050919050565b5f6136518261360f565b61365b8185613619565b935061366b818560208601613629565b61367481613637565b840191505092915050565b5f6020820190508181035f8301526136978184613647565b905092915050565b5f819050919050565b6136b18161369f565b81146136bb575f5ffd5b50565b5f813590506136cc816136a8565b92915050565b5f602082840312156136e7576136e661331c565b5b5f6136f4848285016136be565b91505092915050565b6137068161369f565b82525050565b5f60208201905061371f5f8301846136fd565b92915050565b5f5ffd5b7f4e487b71000000000000000000000000000000000000000000000000000000005f52604160045260245ffd5b61375f82613637565b810181811067ffffffffffffffff8211171561377e5761377d613729565b5b80604052505050565b5f613790613313565b905061379c8282613756565b919050565b5f67ffffffffffffffff8211156137bb576137ba613729565b5b602082029050602081019050919050565b5f5ffd5b5f6137e26137dd846137a1565b613787565b90508083825260208201905060208402830185811115613805576138046137cc565b5b835b8181101561382e578061381a888261339d565b845260208401935050602081019050613807565b5050509392505050565b5f82601f83011261384c5761384b613725565b5b813561385c8482602086016137d0565b91505092915050565b5f5ffd5b5f67ffffffffffffffff82111561388357613882613729565b5b61388c82613637565b9050602081019050919050565b828183375f83830152505050565b5f6138b96138b484613869565b613787565b9050828152602081018484840111156138d5576138d4613865565b5b6138e0848285613899565b509392505050565b5f82601f8301126138fc576138fb613725565b5b813561390c8482602086016138a7565b91505092915050565b5f5f5f5f5f60a0868803121561392e5761392d61331c565b5b5f61393b8882890161336a565b955050602061394c8882890161336a565b945050604086013567ffffffffffffffff81111561396d5761396c613320565b5b61397988828901613838565b935050606086013567ffffffffffffffff81111561399a57613999613320565b5b6139a688828901613838565b925050608086013567ffffffffffffffff8111156139c7576139c6613320565b5b6139d3888289016138e8565b9150509295509295909350565b5f5f604083850312156139f6576139f561331c565b5b5f613a03858286016136be565b9250506020613a148582860161336a565b9150509250929050565b5f67ffffffffffffffff821115613a3857613a37613729565b5b602082029050602081019050919050565b5f613a5b613a5684613a1e565b613787565b90508083825260208201905060208402830185811115613a7e57613a7d6137cc565b5b835b81811015613aa75780613a93888261336a565b845260208401935050602081019050613a80565b5050509392505050565b5f82601f830112613ac557613ac4613725565b5b8135613ad5848260208601613a49565b91505092915050565b5f5f60408385031215613af457613af361331c565b5b5f83013567ffffffffffffffff811115613b1157613b10613320565b5b613b1d85828601613ab1565b925050602083013567ffffffffffffffff811115613b3e57613b3d613320565b5b613b4a85828601613838565b9150509250929050565b5f81519050919050565b5f82825260208201905092915050565b5f819050602082019050919050565b613b868161337e565b82525050565b5f613b978383613b7d565b60208301905092915050565b5f602082019050919050565b5f613bb982613b54565b613bc38185613b5e565b9350613bce83613b6e565b805f5b83811015613bfe578151613be58882613b8c565b9750613bf083613ba3565b925050600181019050613bd1565b5085935050505092915050565b5f6020820190508181035f830152613c238184613baf565b905092915050565b613c3481613343565b82525050565b5f602082019050613c4d5f830184613c2b565b92915050565b613c5c816134ca565b8114613c66575f5ffd5b50565b5f81359050613c7781613c53565b92915050565b5f5f5f60608486031215613c9457613c9361331c565b5b5f613ca18682870161336a565b9350506020613cb28682870161339d565b9250506040613cc386828701613c69565b9150509250925092565b613cd681613497565b8114613ce0575f5ffd5b50565b5f81359050613cf181613ccd565b92915050565b5f5f60408385031215613d0d57613d0c61331c565b5b5f613d1a8582860161336a565b9250506020613d2b85828601613ce3565b9150509250929050565b5f5ffd5b5f5f83601f840112613d4e57613d4d613725565b5b8235905067ffffffffffffffff811115613d6b57613d6a613d35565b5b602083019150836020820283011115613d8757613d866137cc565b5b9250929050565b5f5f83601f840112613da357613da2613725565b5b8235905067ffffffffffffffff811115613dc057613dbf613d35565b5b602083019150836020820283011115613ddc57613ddb6137cc565b5b9250929050565b5f5f5f5f60408587031215613dfb57613dfa61331c565b5b5f85013567ffffffffffffffff811115613e1857613e17613320565b5b613e2487828801613d39565b9450945050602085013567ffffffffffffffff811115613e4757613e46613320565b5b613e5387828801613d8e565b925092505092959194509250565b5f5f60408385031215613e7757613e7661331c565b5b5f613e848582860161339d565b9250506020613e9585828601613c69565b9150509250929050565b5f5f60408385031215613eb557613eb461331c565b5b5f613ec28582860161336a565b9250506020613ed38582860161336a565b9150509250929050565b5f60208284031215613ef257613ef161331c565b5b5f613eff8482850161336a565b91505092915050565b5f5f5f5f5f60a08688031215613f2157613f2061331c565b5b5f613f2e8882890161336a565b9550506020613f3f8882890161336a565b9450506040613f508882890161339d565b9350506060613f618882890161339d565b925050608086013567ffffffffffffffff811115613f8257613f81613320565b5b613f8e888289016138e8565b9150509295509295909350565b7f4e487b71000000000000000000000000000000000000000000000000000000005f52602260045260245ffd5b5f6002820490506001821680613fdf57607f821691505b602082108103613ff257613ff1613f9b565b5b50919050565b5f60408201905061400b5f830185613c2b565b6140186020830184613c2b565b9392505050565b5f6040820190506140325f8301856133ef565b61403f60208301846133ef565b9392505050565b7f4e487b71000000000000000000000000000000000000000000000000000000005f52603260045260245ffd5b5f8151905061408181613387565b92915050565b5f6020828403121561409c5761409b61331c565b5b5f6140a984828501614073565b91505092915050565b7f4e487b71000000000000000000000000000000000000000000000000000000005f52601160045260245ffd5b5f6140e98261337e565b91506140f48361337e565b925082820390508181111561410c5761410b6140b2565b5b92915050565b5f61411c826134ca565b9150614127836134ca565b9250828201905067ffffffffffffffff811115614147576141466140b2565b5b92915050565b614156816134ca565b82525050565b614165816134ec565b82525050565b5f60408201905061417e5f83018561414d565b61418b602083018461415c565b9392505050565b5f61419c826134ec565b915063ffffffff82036141b2576141b16140b2565b5b600182019050919050565b7f4c656e677468206d69736d6174636800000000000000000000000000000000005f82015250565b5f6141f1600f83613619565b91506141fc826141bd565b602082019050919050565b5f6020820190508181035f83015261421e816141e5565b9050919050565b7f417574686f72697a65642073656e646572206f6e6c79000000000000000000005f82015250565b5f614259601683613619565b915061426482614225565b602082019050919050565b5f6020820190508181035f8301526142868161424d565b9050919050565b7f43616e6e6f74206275726e0000000000000000000000000000000000000000005f82015250565b5f6142c1600b83613619565b91506142cc8261428d565b602082019050919050565b5f6020820190508181035f8301526142ee816142b5565b9050919050565b7f416c7265616479207365740000000000000000000000000000000000000000005f82015250565b5f614329600b83613619565b9150614334826142f5565b602082019050919050565b5f6020820190508181035f8301526143568161431d565b9050919050565b7f496e73756666696369656e742066756e647300000000000000000000000000005f82015250565b5f614391601283613619565b915061439c8261435d565b602082019050919050565b5f6020820190508181035f8301526143be81614385565b9050919050565b5f81519050919050565b5f81905092915050565b5f6143e3826143c5565b6143ed81856143cf565b93506143fd818560208601613629565b80840191505092915050565b5f61441482846143d9565b915081905092915050565b7f5472616e73666572206661696c656400000000000000000000000000000000005f82015250565b5f614453600f83613619565b915061445e8261441f565b602082019050919050565b5f6020820190508181035f83015261448081614447565b9050919050565b5f60408201905061449a5f830185613c2b565b6144a760208301846136fd565b9392505050565b5f6080820190506144c15f830187613c2b565b6144ce60208301866133ef565b6144db60408301856133ef565b6144e860608301846133ef565b95945050505050565b5f6144fb8261337e565b91506145068361337e565b925082820190508082111561451e5761451d6140b2565b5b92915050565b5f6040820190508181035f83015261453c8185613baf565b905081810360208301526145508184613baf565b90509392505050565b5f82825260208201905092915050565b5f614573826143c5565b61457d8185614559565b935061458d818560208601613629565b61459681613637565b840191505092915050565b5f60a0820190506145b45f830188613c2b565b6145c16020830187613c2b565b6145ce60408301866133ef565b6145db60608301856133ef565b81810360808301526145ed8184614569565b90509695505050505050565b5f8151905061460781613442565b92915050565b5f602082840312156146225761462161331c565b5b5f61462f848285016145f9565b91505092915050565b5f60a08201905061464b5f830188613c2b565b6146586020830187613c2b565b818103604083015261466a8186613baf565b9050818103606083015261467e8185613baf565b905081810360808301526146928184614569565b9050969550505050505056fea2646970667358221220c447de30b9a36e15636835f66cc078f967210d49a5f50d4053eff7af619771e664736f6c634300081c0033","linkReferences":{}},"methodIdentifiers":{"DEFAULT_ADMIN_ROLE()":"a217fddf","MANAGER_ROLE()":"ec87621c","REACTIVE_ROLE()":"7ab48e6d","balanceOf(address,uint256)":"00fdd58e","balanceOfBatch(address[],uint256[])":"4e1273f4","burnExpired(address,uint256)":"db9c6e47","coverDebt()":"7a90b990","getRemainingTime(address,uint256)":"7d69bc51","getRoleAdmin(bytes32)":"248a9ca3","getSubscriptionStatus(address,uint256)":"0cd2c460","grantRole(bytes32,address)":"2f2ff15d","hasRole(bytes32,address)":"91d14854","isApprovedForAll(address,address)":"e985e9c5","isInGracePeriod(address,uint256)":"8c1973a8","isSubscriptionActive(address,uint256)":"3de4b5fa","mintOrRenew(address,uint256,uint64)":"a24fb415","onPaymentProcessed(address,uint256,uint64)":"98f327d3","pay()":"1b9265b8","pay(uint256)":"c290d691","processBatchExpiry(address[],uint256[])":"b66e25a2","reactiveContract()":"5799ce10","renounceRole(bytes32,address)":"36568abe","revokeRole(bytes32,address)":"d547741f","safeBatchTransferFrom(address,address,uint256[],uint256[],bytes)":"2eb2c2d6","safeTransferFrom(address,address,uint256,uint256,bytes)":"f242432a","setApprovalForAll(address,bool)":"a22cb465","setMerchantGracePeriod(uint256,uint64)":"dee10e07","setReactiveContract(address)":"e9e0d4db","subscriptionManager()":"bf158fd2","supportsInterface(bytes4)":"01ffc9a7","uri(uint256)":"0e89341c"},"id":51}